:020000040800F2
:10000000C006002055020008390F0008310F000813
:10001000350F00084D0400082D11000800000000F5
:10002000000000000000000000000000450F000874
:100030005104000800000000410F0008490F0008AB
:100040006F0200086F0200086F0200086F020008CC
:100050006F0200086F0200086F0200086F020008BC
:100060006F0200086F0200086F0200086F020008AC
:100070006F0200086F0200086F0200086F0200089C
:100080006F0200086F0200086F0200086F0200088C
:100090006F0200086F0200086F0200086F0200087C
:1000A0006F0200086F0200086F0200086F0200086C
:1000B0006F0200086F0200086F0200086F0200085C
:1000C0006F0200086F0200086F0200086F0200084C
:1000D0006F0200086F0200086F0200086F0200083C
:1000E0006F0200086F0200086F0200086F0200082C
:1000F0006F0200086F0200086F0200086F0200081C
:100100006F0200086F0200086F0200086F0200080B
:100110006F0200086F0200086F0200086F020008FB
:100120006F0200086F0200086F0200086F020008EB
:100130006F0200086F0200086F0200086F020008DB
:100140006F0200086F0200086F0200086F020008CB
:100150006F0200086F0200086F0200086F020008BB
:100160006F0200086F0200086F0200086F020008AB
:100170006F0200086F0200086F0200080000000014
:100180006F0200086F02000800F002F800F052F859
:1001900014A696E8000CB244B344DA4501D100F04D
:1001A00049F8BAE80F000FA696E83000A5EB040561
:1001B00004EB0607AAEB0704A7F101074FEA1515A0
:1001C0004FEA3414A4F10104AC4201D300F032F838
:1001D00013F0010F18BFFB1A43F0010300F001F800
:1001E000DBE7184784100000A4100000103A24BF79
:1001F00078C878C1FAD8520724BF30C830C144BF8C
:1002000004680C6070470000704700000023002461
:1002100000250026103A28BF78C1FBD8520728BF16
:1002200030C148BF0B6070471FB501F007F81FBD14
:1002300010B510BD00F0D0F81146FFF7F5FF00F043
:1002400077FF00F0EEF803B4FFF7F2FF03BC00F015
:10025000F5F800000948804709480047FEE7FEE737
:10026000FEE7FEE7FEE7FEE7FEE7FEE7FEE7FEE766
:1002700004480549054A064B70470000DD0F000899
:1002800089010008C0000020C0060020C002002034
:10029000C002002053EA020C00F069802DE9F04B07
:1002A0004FF00006002B1FBFB3FA83F503FA05F4E5
:1002B00024FA05F65E4012BF1643B2FA82F502FA3E
:1002C00005F4C5F120051EBF22FA05FC44EA0C0422
:1002D000203556EA044C4FEA144418BF641C4FF012
:1002E00000084FF00009904271EB030C39D300294C
:1002F00019BFB1FA81F701FA07F6B0FA80F700FAF0
:1003000007F6C7F120071EBF20FA07FC46EA0C06D5
:100310002037B6FBF4FCA7EB0507103F07F01F0BD7
:10032000CBF120062CFA06F60CFA0BFB44BFB346C1
:100330000026202FA4BF5E464FF0000B5BEA060CA0
:1003400008BF4FF0010B19EB0B0948EB0608ABFB9C
:10035000027C06FB02CC0BFB03CCC01B71EB0C0137
:10036000C1E70B46024641464846BDE8F08B13B54F
:10037000084318BF4FF0FF300146AFF30080BDE8DF
:100380001C4070474FF0000200B513469446964655
:10039000203922BFA0E80C50A0E80C50B1F1200198
:1003A000BFF4F7AF090728BFA0E80C5048BF0CC046
:1003B0005DF804EB890028BF40F8042B08BF7047A4
:1003C00048BF20F8022B11F0804F18BF00F8012B16
:1003D0007047704770477047754600F02BF8AE467F
:1003E00005006946534620F00700854618B020B541
:1003F000FFF73EFFBDE820404FF000064FF000073A
:100400004FF000084FF0000BAC46ACE8C009ACE878
:10041000C009ACE8C009ACE8C00921F007018D466D
:10042000704710B50446AFF300802046BDE8104089
:10043000FFF709BF0048704710000020014918204D
:10044000ABBEFEE72600020070470000FEE700009A
:10045000704700002DE9F04F83B000F1200200F159
:100460003E4741F60045009207F1FF77C4F20205CE
:1004700008224FEAB726A84208BF072200254FF0FE
:1004800000084FF00009072E38BF4FEAB72201924B
:100490000AE000BF09F1010908F10208B9F1100FE3
:1004A00005F1040500F0A2800F68012202FA09FE9E
:1004B00017EA0E0AEED0D1F804C003220CF00307AD
:1004C0007E1E02FA08F4012E6FEA040B12D884682B
:1004D000CE6804EA0B0406FA08F6344384604468E4
:1004E00024EA0E06CCF3001404FA09F4264346600D
:1004F00004E000BF032F01D103271EE0C6688C680B
:1005000006EA0B0604FA08F42643022FC66014D14B
:100510006FF00302009E02EA590756F807C005F083
:100520001C040F220B69A2402CEA0202A3401A43CA
:10053000F251D1F804C00CF00307026807FA08F37F
:1005400002EA0B021A431CF4403F0260A2D00022D0
:1005500043F644030292C4F202031A6843F60044CD
:1005600042F480421A601A68C4F2010402F4804224
:100570000292029A29F003024FF6084C2244CFF669
:10058000FF7C52F80C3005F00C070F26BE40B34339
:10059000019E06FA07F73B4342F80C30A2684B680D
:1005A00042EA0A0743F60C4CDE0258BF22EA0A0769
:1005B000A760C4F2010CDCF800209E0242EA0A07A0
:1005C00058BF22EA0A07CCF8007062689E0342EA2C
:1005D0000A0758BF22EA0A0767602268DB0342EA7B
:1005E0000A0758BF22EA0A07276053E703B0BDE8AD
:1005F000F08F0000426902EA0103914341EA03419E
:1006000081617047002A08BF0904816170470000BA
:1006100040F2B800C2F200000068704740F20000EB
:1006200040F2B801C2F20000C2F2000100780A688C
:10063000104408607047000080B543F60040C4F2E3
:100640000200016841F400710160016841F48061B9
:100650000160016841F480710160032000F074F8CA
:100660000F2000F005F800F027F8002080BD000002
:1006700070B540F20006C2F2000640F2080132787E
:10068000C2F200014FF47A730968B3FBF2F2044638
:10069000B1FBF2F1084600F03DFB0F2C4FF00105D5
:1006A00008D838B94FF0FF3021460022002500F06D
:1006B0001FF87460284670BD82B0002043F64001E8
:1006C0000190C4F202014A6842F480424A604A68DA
:1006D00002F480420192019A0090086840F0805034
:1006E0000860086800F080500090009802B07047E1
:1006F00010B54EF60C5CCEF2000CDCF80030C3F303
:10070000022E8EF00704042C28BF0424BEF103033C
:100710004FF0FF3E0EFA04F438BF0023A143994086
:100720000EFA03F39A43114300F00F0200F1604305
:100730000901043A03F564436244002848BF02F10A
:100740000C03197010BD00004EF60C51CEF20001E2
:100750000A684FF6FF031A4060F30A2242F08060F5
:1007600040F0FD700860704770470000002804BF2B
:10077000012070472DE9F04143F60808C4F2020851
:100780000446D8F8F8030D4600F00700814207D967
:1007900088F8F853D8F8F80300F00700A84277D19A
:1007A0002068810717D5410705D5D8F8001041F416
:1007B000E051C8F80010010705D5D8F8001041F441
:1007C0006041C8F80010D8F80010A26821F0F001CC
:1007D0001143C8F80010C00740D1D8F8F80300F062
:1007E0000700854207D288F8F853D8F8F80300F0DC
:1007F0000700A8424CD12068410707D5D8F800105F
:10080000E26821F4E0511143C8F80010000708D550
:10081000D8F80000216920F4604040EAC100C8F81F
:10082000000000F05BF8D8F8001041F25622C1F346
:100830000311C0F60002515C40F2080220FA01F1F7
:1008400040F20400C2F200000068C2F2000211602F
:10085000FFF70EFF0020BDE8F08100BF6068811E39
:10086000022907D258F8081C89015CBF0120BDE8A5
:10087000F08111E0012807D158F8081C89035CBFFA
:100880000120BDE8F08107E058F8081C890703D46F
:100890000120BDE8F08100BFD8F8001021F003016D
:1008A0000843C8F80000FFF7B3FE064641F2883758
:1008B000D8F80000616800F00C00B0EB810F8CD01C
:1008C000FFF7A6FE801BB842F2D90320BDE8F081F5
:1008D0004C20C4F2472001210160704710B543F657
:1008E0000404C4F202046168C1F3810142F20040D1
:1008F000C0F2F400DFE801F002040A0210BD00BFFC
:1009000041F20020C0F27A0010BD00BF216801F062
:100910003F02216823684902C3F3881106D4A1FB72
:1009200000010023FFF7B6FC07E000BF41F2002002
:10093000C0F27A004843B0FBF2F021680222C1F312
:10094000014102EB4101B0FBF1F010BD10B543F6DF
:100950000C04C4F202042068000658BF10BDFFF763
:1009600003FF8020A07010BD002804BF0120704745
:100970002DE9F04182B00446007843F60006C00736
:10098000C4F202060CD0B06800F00C00042840F05D
:1009900081803068800303D56068002800F068819A
:1009A000207880071BD5B06810F00C0F09D0B06814
:1009B00000F00C00082840F087807068400200F1C9
:1009C00083803068800703D5E068012840F05081BB
:1009D0003068216920F0F80040EAC10030602078DA
:1009E000000713D4207840072AD4A569002D00F011
:1009F0003A81B06800F00C00082840F0A580012D75
:100A000040F00E81012002B0BDE8F081606900284D
:100A100000F082800020C4F247200121C0F8801E2F
:100A2000FFF7F6FD054600BF706F8007DAD4FFF7C9
:100A3000EFFD401B0228F7D9032002B0BDE8F0818A
:100A4000306C5FEAC0080AD400200190306C40F09E
:100A500080503064306C00F080500190019847F273
:100A60000007C4F200073868C00547D4386840F46E
:100A700080703860FFF7CCFD054600BF3868C005C0
:100A80003CD4FFF7C5FD401B0228F7D9032002B074
:100A9000BDE8F081B06800F00C00082803D1706850
:100AA00040023FF576AF61683068B1F5803F07D00E
:100AB000B1F5A02F40F09A8040F48020306030687B
:100AC00040F4803030609AE0E068002840F2000096
:100AD000C4F247205CD001210160FFF799FD054673
:100AE000306880073FF574AFFFF792FD401B022886
:100AF000F6D9032002B0BDE8F08100BFA168306FD5
:100B0000012905D0052955D140F004003067306F28
:100B100040F00100306756E00020C4F24720002179
:100B2000C0F8801EFFF774FD054600BF706F800798
:100B30007FF558AFFFF76CFD401B0228F6D9032064
:100B400002B0BDE8F08100BF0027C4F247270020B3
:100B50003866FFF75DFD022D05460DD13068800136
:100B600040F18A80FFF754FD401B02284FF003003C
:100B7000F4D902B0BDE8F0813068800173D5FFF789
:100B800047FD401B02284FF00300F5D9F1E700BFF5
:100B900000210160FFF73CFD054600BF306880077B
:100BA0007FF51DAFFFF734FD401B02284FF0030017
:100BB000F4D9DEE720F001003067306F002920F023
:100BC000040030677AD0FFF723FD054641F28837ED
:100BD000306F800700F18480FFF71AFD401BB84298
:100BE000F6D9032002B0BDE8F08100BF20F48030C8
:100BF00030603068002920F4802030607AD0FFF720
:100C000007FD0546306880033FF5CAAEFFF700FDDB
:100C1000401B6428F6D9032002B0BDE8F08100BF74
:100C20007068E16900F480028A4221D1216A00F0F3
:100C30003F028A421CD147F6C071626A0140B1EBA3
:100C4000821F15D1A16A4FF6FF73C903994300F4BF
:100C50004032A1F580318A420AD1E16A00F0706029
:100C6000B0EB016F04D1002002B0BDE8F08100BFFD
:100C7000012002B0BDE8F08104F11C052FCD08432E
:100C800040EA8210D9034FF6FF729143A1F58031FB
:100C900040EA05600843706001203866FFF7B8FC41
:100CA000044600BF30688001DDD4FFF7B1FC001BB3
:100CB00002284FF00300F5D95BE700BFFFF7A8FC5F
:100CC000054641F2883700BF306F800708D5FFF72F
:100CD0009FFC401BB8424FF00300F5D949E700BF25
:100CE000B8F1000F3FF581AE306C20F080503064D9
:100CF0007BE600BFFFF78CFC054600BF3068800331
:100D00007FF54EAEFFF784FC401B64284FF00300D4
:100D1000F4D92EE7411E0020B0EB116F1CBF01205B
:100D200070474EF21002CEF2000251604EF623518F
:100D3000CEF20001F0230B70072190601160704724
:100D400090F83C20012A4FF0020254D010B580F8F0
:100D50003D200268D2F804E0D2F808C00C682EF0FA
:100D60007003234341F2FF74C4F20004A2425360B3
:100D70000EDC40F2FF73C4F200039A4216DCB2F1BB
:100D8000804F2BD040F20043C4F2000324E000BFA8
:100D900040F2FF33C4F201039A4213DC41F6000330
:100DA000C4F200039A4219D0002313E040F6000376
:100DB000C4F200039A4211D040F60043C4F200038B
:100DC0000AE000BF44F20003C4F201039A4205D0D6
:100DD00040F20043C4F201039A4204D149682CF066
:100DE0008003194391600121002280F83D1080F8B2
:100DF0003C20BDE81040104670470000002804BFAA
:100E00000120704710B5044690F83D0028B9002035
:100E100084F83C00204600F01FF8022084F83D00D2
:100E20002068211D00F0E4F8012084F8460084F8D1
:100E30003E0084F83F0084F8400084F8410084F8C4
:100E4000420084F8430084F8440084F8450084F8A4
:100E50003D00002010BD0000006841F20041C4F2D6
:100E60000001884218BF704781B00020009043F60F
:100E70004000C4F20200016841F0200101600068F6
:100E800000F020000090009801B0704790F83D10ED
:100E900001291CBF01207047022180F83D10006825
:100EA00041F2FF71C4F2000188420DDC40F2FF7193
:100EB000C4F20001884215DCB0F1804F2AD040F224
:100EC0000041C4F2000123E040F2FF31C4F201010D
:100ED000884213DC41F60001C4F20001884219D0B7
:100EE000002113E040F60001C4F20001884211D055
:100EF00040F60041C4F200010AE000BF44F20001E4
:100F0000C4F20101884205D040F20041C4F201015F
:100F1000884206D1816801F00701062904BF00203C
:100F20007047016841F00101016000207047000036
:100F3000FEE70000FEE70000FFF708FDFEE7000007
:100F40007047000070470000FFF768BB70B592B0B3
:100F500006AC20463021FFF715FA002543F6400085
:100F60000595CDE90355CDE901550095C4F2020080
:100F70000168012641F080510160006800F0805056
:100F80000090009847F200000095C4F2000001684C
:100F900041F480410160006800F4804000900098B6
:100FA0004FF480300790204606960C95FFF7DCFC46
:100FB00010B172B6FEE700BF0F20CDE9010601A80F
:100FC0000021CDE903550595FFF7D0FB10B172B6AE
:100FD000FEE700BFFFF77CFC12B070BD4EF68850F4
:100FE000CEF20000016841F470010160704700001A
:100FF000B0B540F6FF3E0568C4F2000E40F2004C6A
:101000007045C4F2010C25DCB0F1804F2FD040F2C6
:101010000043C4F20003984229D040F60003C4F212
:101020000003984223D041F6FF73C4F200039842B4
:1010300028DC70453ADCB0F1804F5BD040F20043D1
:10104000C4F20003984255D040F60003C4F20003F6
:101050004EE000BF40F60043C4F20003984206D0C1
:10106000604504D00023C4F201039842DBD14B68F1
:1010700025F0700243EA020541F6FF73C4F2000353
:101080009842D6DD43F6FF73C4F2010398421FDC99
:1010900042F20003C4F2000398422BD00023C4F2B2
:1010A0000103984226D0604524D028E040F6004352
:1010B000C4F2000398421DD041F60003C4F20003BD
:1010C000984217D041F60043C4F2000310E000BF7D
:1010D00044F20003C4F2010398420BD044F600032B
:1010E000C4F20103984205D044F20043C4F2010364
:1010F000984204D1CB6825F4407243EA02050A689D
:101100008C684B69C46240F480648262644504BFA9
:1011100009690163026825F0800142F00402194365
:101120000260012242610160B0BD0000FEE70000E4
:1011300088B040F60044C4F20204FFF77DFAFFF7DE
:1011400005FF002543F630000695CDE90455CDE9AD
:1011500002550195C4F202000168002241F08001AD
:10116000016001684FF4704601F08001019101991E
:101170000195016841F008010160016801F0080172
:10118000019101990195016841F001010160006838
:101190004FF4704100F00100019001982046FFF7E4
:1011A00031FA0120CDE9030502A9204602960595F2
:1011B000FFF750F940F27000A4F5FC31C2F20000D4
:1011C00041F63F7240F2E73380E826008021CDE906
:1011D0000255C3608161FFF711FE18B172B600BFFE
:1011E000FEE700BF40F27005C2F2000502A92846E2
:1011F000FFF7A6FD10B172B6FEE700BF2E682846C5
:10120000FFF744FE6FF001073069C007FCD02046AD
:101210004FF48051FFF7EEF920464FF40051FFF7ED
:10122000E9F920464FF48041FFF7E4F920464FF4F6
:101230000041FFF7DFF928680761E5E7F1EE100AE2
:101240004FF6FF71C0F2C03120EA010040F040705B
:10125000E1EE100A704700000000000000000102EB
:101260000304060708090000881200080000002097
:1012700010000000EC010008981200081000002087
:10128000B00600000C020008010000001000000081
:081290000024F400000000003E
:040000050800018965
:00000001FF
