:020000040800F2
:10000000A0070020650200084D300008C922000842
:100010004930000825080008593100080000000098
:100020000000000000000000000000005530000843
:10003000290800080000000051300008593000086D
:100040007F0200087F0200087F0200087F0200088C
:100050007F0200087F0200087F0200087F0200087C
:100060007F0200087F0200087F0200087F0200086C
:100070007F0200087F0200087F0200087F0200085C
:100080007F0200087F0200087F0200087F0200084C
:100090007F0200087F0200087F0200087F0200083C
:1000A0007F0200087F0200087F0200087F0200082C
:1000B0007F0200087F0200087F020008D9220008A2
:1000C000CD2200087F0200087F0200087F0200089E
:1000D0007F0200087F0200087F0200087F020008FC
:1000E0007F0200087F0200087F0200087F020008EC
:1000F0007F0200087F0200087F0200087F020008DC
:100100007F0200087F0200087F0200087F020008CB
:100110007F0200087F0200087F0200087F020008BB
:100120007F0200087F0200087F0200087F020008AB
:100130007F0200087F0200087F0200087F0200089B
:100140007F0200087F0200087F0200087F0200088B
:100150007F0200087F0200087F0200087F0200087B
:100160007F0200087F0200087F0200087F0200086B
:100170007F0200087F0200087F02000800000000E4
:100180007F0200087F02000800F002F800F05AF831
:1001900014A696E8000CB244B344DA4501D100F04D
:1001A00051F8BAE80F000FA696E83000A5EB040559
:1001B00004EB0607AAEB0704A7F101074FEA1515A0
:1001C0004FEA3414A4F10104AC4201D300F03AF830
:1001D00013F0010F18BFFB1A43F0010300F001F800
:1001E000DBE718471835000038350000103A24BF07
:1001F00078C878C1FAD8520724BF30C830C144BF8C
:1002000004680C6070470000704700000023002461
:1002100000250026103A28BF78C1FBD8520728BF16
:1002200030C148BF0B607047642900F0FB8078291B
:1002300000F03481002070471FB503F0C0F91FBDE6
:1002400010B510BD00F0B4FA1146FFF7F5FF02F04B
:1002500085FF00F0D2FA03B4FFF7F2FF03BC00F011
:10026000D9FA00000948804709480047FEE7FEE741
:10027000FEE7FEE7FEE7FEE7FEE7FEE7FEE7FEE756
:1002800004480549054A064B704700005D300008E8
:1002900089010008A0010020A0070020A003002081
:1002A000A003002053EA020C00F069802DE9F04B16
:1002B0004FF00006002B1FBFB3FA83F503FA05F4D5
:1002C00024FA05F65E4012BF1643B2FA82F502FA2E
:1002D00005F4C5F120051EBF22FA05FC44EA0C0412
:1002E000203556EA044C4FEA144418BF641C4FF002
:1002F00000084FF00009904271EB030C39D300293C
:1003000019BFB1FA81F701FA07F6B0FA80F700FADF
:1003100007F6C7F120071EBF20FA07FC46EA0C06C5
:100320002037B6FBF4FCA7EB0507103F07F01F0BC7
:10033000CBF120062CFA06F60CFA0BFB44BFB346B1
:100340000026202FA4BF5E464FF0000B5BEA060C90
:1003500008BF4FF0010B19EB0B0948EB0608ABFB8C
:10036000027C06FB02CC0BFB03CCC01B71EB0C0127
:10037000C1E70B46024641464846BDE8F08B13B53F
:10038000084318BF4FF0FF300146AFF30080BDE8CF
:100390001C4070470FB41CB50C0007AA009007D092
:1003A0004142A14202D32044401E01E04FF0FF3001
:1003B000074B7B4469460190069800F0DEF9002067
:1003C000002C01D0009908701CBC5DF814FB0000E3
:1003D000EB03000070B5044685690068C10601D5CD
:1003E000302600E02026C00707D070BDD4E90121E7
:1003F00030469047206A401C20626D1EF6D570BDC5
:1004000070B5044685690078C00707D170BDD4E98E
:10041000012120209047206A401C20626D1EF6D5E5
:1004200070BD00002DE9F0410646002410687529D2
:10043000314616A510D0AFF30080002802DA404202
:1004400013A507E031688A0701D512A502E0490724
:1004500004D511A5012401E0AFF3008000210A2298
:1004600006F1240709E0B0FBF2FCB0FBF2F302FB5B
:100470001C00303078541846491C0028F3D123461C
:100480002A463046BDE8F04100F019B900000000EE
:100490002D0000002B0000002000000070B5044675
:1004A0000D4621461068AFF300802188090502D56A
:1004B0000F4A7A4402E00E4A7A440E32002104F1D7
:1004C000240305E000F00F060009965D5E54491C08
:1004D0000028F7D120780023000704D5702D02D022
:1004E00009B1022311322046BDE8704000F0E7B8A0
:1004F000223100002DE9F05F894604464FF0000AE2
:10050000DFF824B1FB44C0F820A02046E16888470A
:1005100000287DD0252806D0D4E901219047206A03
:10052000401C2062F1E700255F462046E1688847CD
:100530002028064607DB312E05D2B81910F8200C0A
:1005400008B10543F1E7A80701D525F00405C4F873
:100550001CA00027C4F818A02A2E09D0304603F0AA
:1005600027F838B304EB8708303EC8F8186019E064
:1005700059F8041B204604EB87029161E168884723
:10058000012F064618D1E069002820DA25F0200561
:100590001DE0D8F8180000EB800006EB4000303872
:1005A000C8F818002046E1688847064603F000F8BE
:1005B0000028EED1012F0AD02E2E08D12046E16866
:1005C00088477F1C0646022F45F02005C4DBA06942
:1005D000002803DA404245F00105A061E80701D098
:1005E00025F01005A6B1A6F14100192802D8203641
:1005F00045F400654A463146204625604D46FFF7E2
:1006000013FE60B1012807D0ED1D25F0070000E0C2
:1006100007E000F1080978E705F1040975E73046BD
:100620007AE7206ABDE8F09FF830000010B5431C5F
:1006300002E010F8011B71B18107FAD14FF00132CD
:1006400002C88C1A8C4314EAC211F9D0C01A0A06E7
:1006500003D0C01E10BDC01A10BD0A0401D0801EF8
:1006600010BD0902FCD0401E10BD4FF0000200B5C5
:10067000134694469646203922BFA0E80C50A0E8C5
:100680000C50B1F12001BFF4F7AF090728BFA0E873
:100690000C5048BF0CC05DF804EB890028BF40F83F
:1006A000042B08BF704748BF20F8022B11F0804F81
:1006B00018BF00F8012B70477047704770472DE94D
:1006C000F0470D4699469246044600F12408016819
:1006D000880604D5E06921F01001216000E00120C6
:1006E000A84201DD471B00E00027A1697A1902EB4F
:1006F0000900081AA0612078C00602D42046FFF73E
:1007000069FE002608E0D4E901211AF806009047A6
:10071000206A401C761C20624E45F4DB2078C0061F
:100720000AD52046FFF756FE06E0D4E90121302025
:100730009047206A401C2062381EA7F10107F4DCB4
:1007400007E0D4E9012118F805009047206A401C11
:100750002062281EA5F10105F3DC2046FFF750FEBC
:100760002078000602D50220BDE8F0870120FBE7D3
:1007700001694A1C02610878704700B58FB0CDE965
:1007800001310021059105497944CDE90310114655
:100790006846FFF7AFFE0FB000BD0000E5FFFFFFAA
:1007A000D1E900239A4202D2531C0B6010707047AB
:1007B000754600F02BF8AE4605006946534620F01A
:1007C0000700854618B020B5FFF75AFDBDE8204068
:1007D0004FF000064FF000074FF000084FF0000BFD
:1007E000AC46ACE8C009ACE8C009ACE8C009ACE86C
:1007F000C00921F007018D46704710B50446AFF3DC
:1008000000802046BDE81040FFF725BD0048704736
:100810001000002001491820ABBEFEE726000200B0
:1008200070470000FEE700007047000090F83510A8
:10083000022909D1052180F835100068016821F0EE
:10084000010101600020704780214165012070474F
:1008500090F8350070470000B0B5044600F0E0F8AD
:10086000054640F20000C2F200000078611C18BF8B
:10087000044400BF00F0D4F8401BA042FAD3B0BD3E
:100880002DE9F04F83B000F1200200F13E4741F620
:100890000045009207F1FF77C4F2020508224FEAF3
:1008A000B726A84208BF072200254FF000084FF0E6
:1008B0000009072E38BF4FEAB72201920AE000BFB5
:1008C00009F1010908F10208B9F1100F05F1040559
:1008D00000F0A2800F68012202FA09FE17EA0E0A50
:1008E000EED0D1F804C003220CF003077E1E02FAFA
:1008F00008F4012E6FEA040B12D88468CE6804EA6B
:100900000B0406FA08F634438460446824EA0E06B1
:10091000CCF3001404FA09F42643466004E000BF57
:10092000032F01D103271EE0C6688C6806EA0B0678
:1009300004FA08F42643022FC66014D16FF00302B4
:10094000009E02EA590756F807C005F01C040F2262
:100950000B69A2402CEA0202A3401A43F251D1F8DB
:1009600004C00CF00307026807FA08F302EA0B025E
:100970001A431CF4403F0260A2D0002243F6440315
:100980000292C4F202031A6843F6004442F4804221
:100990001A601A68C4F2010402F480420292029AB8
:1009A00029F003024FF6084C2244CFF6FF7C52F8A0
:1009B0000C3005F00C070F26BE40B343019E06FA2B
:1009C00007F73B4342F80C30A2684B6842EA0A073B
:1009D00043F60C4CDE0258BF22EA0A07A760C4F2B5
:1009E000010CDCF800209E0242EA0A0758BF22EA06
:1009F0000A07CCF8007062689E0342EA0A0758BFF3
:100A000022EA0A0767602268DB0342EA0A0758BF46
:100A100022EA0A07276053E703B0BDE8F08F000021
:100A200040F29C10C2F2000000687047704700005E
:100A300070470000F0B581B00446006800254769A2
:100A4000426894F83E1002F48076FA0505D5002E2F
:100A50001EBF6FF4807242610125BA0505D5002ED4
:100A60001EBF02356FF4007242617A0516D5AEB131
:100A7000628D94F83D30D4F830C0202908BF002A98
:100A800024D06FF48062402905F10405426101D051
:100A9000102903D1016841F400710160380507D5C0
:100AA00036B1206808356FF40061416101E000BF94
:100AB00055B1206C40EA05012046216401B0BDE833
:100AC000F04001F09FBC00BF01B0F0BD03F0F701A2
:100AD000212909D0282B08BFBCF1210F04D06FF4C5
:100AE000806141610435D9E794F83D10E26AB2F1C2
:100AF000080318BF0123203A18BF0122134208BF80
:100B0000282921D0212939D10021CFF6FF71E162B6
:100B100021212163202184F83D10002184F83E101A
:100B2000426822F4E06242606FF4806242610268CF
:100B300022F4806202604269120648BF01612046C9
:100B400000F0B8FEAAE700BF0021CFF6FF71E16216
:100B5000416821F4E06141606FF4806141610168A6
:100B600021F48061016000202021206384F83D1081
:100B700084F83E00204600F0C9FB8FE76FF48061E7
:100B800041618BE7F0B581B007687968C26A90F877
:100B90003E5090F83DE0402D01D0102D34D1BB697E
:100BA0007C69E60718D1B2F12A4F00F06B82B2F5EA
:100BB0002A0F00F06782220701F4007240F10681DB
:100BC000002A00F00381416B426C0029D2B23A61E5
:100BD00040F0B080B0E000BF8A0543D44FF0010C74
:100BE0007A685B076ED4120500F14C8204F044026F
:100BF000402A40F0598111F4806100F0558101B024
:100C0000BDE8F04001F040BD026C01F40073002A21
:100C10000CBFBC6900247D69AA0729D543B3016CC8
:100C2000002918BFBC6990F83D1001F0280128295F
:100C300040F0C0807968012221F48061796004F07D
:100C4000040182EA910122064FF0180258BF0C22DB
:100C5000825A002380F83C3001B0BDE8F040FFF735
:100C6000E7BE00BFC16AB1F52A0F3DD1012140E0C6
:100C7000EA066FD5002B6DD090F83D50796821F4CD
:100C8000E06179600021009179690091396841F053
:100C9000010139600099396821F48061396079680F
:100CA000090540F17D8105F0F7010446222940F055
:100CB0004D8154F8381F0A68526824F80E2C34F815
:100CC0000E2C4BE1120500F1DD8104F08402802A34
:100CD00040F0FA8011F4806100F0F68001B0BDE8C8
:100CE000F04001F0B3BD00BFC16AB1F12A4F01D19C
:100CF0000821C16290F83E1040290BD1016D406C73
:100D0000002900F0FE0018BF40F00100386101B07A
:100D1000F0BD00BF0169B1F5804F40F0898090F8C7
:100D20003D10426C212902F0FE0218BF01323A61E7
:100D3000416B09B1C96B39B9806B002800F0A28101
:100D4000C06B002800F09E81786840F400607860F5
:100D500001B0F0BD0EF0F702212A79D105F084022E
:100D6000802A40F0C58011F4806100F0C18090F8C5
:100D70003D10428D002A00F08581426A12F8013B45
:100D80003B614262428D013A4285428D002A08BF92
:100D9000292940F07781796821F4806179602121E7
:100DA0000163282180F83D1001B0BDE8F04000F05B
:100DB00081BD00BF002100917A690092BA6900925A
:100DC000009A80F83C1001B0F0BD00BF4FF0010C5C
:100DD000A6078CEA522C7FF503AF002A3FF400AF40
:100DE00090F83E20C16A036B90F83D60222E40F0DF
:100DF000A380066D002E08BF402A00F09D80026D82
:100E0000002A40F041810269B2F5404F40F03C8138
:100E10000021009179690091B969009100993968C0
:100E200041F480713960016D0131016501B0F0BD9F
:100E3000016D002900F00481016D012940F022813B
:100E4000406C062101EAD010F130386101B0F0BDEC
:100E500005F04402402A5BD111F4806158D090F82B
:100E60003D10428D002A00F00D813A69436A1A70E4
:100E7000426A01324262428D013A4285428D002A25
:100E800008BF2A2940F0FE8001684A6822F4806287
:100E90004A6022210163282180F83D1001B0BDE89D
:100EA000F04000F005BD00BF04F00401012282EA19
:100EB000910141EA0C01C90740F0E48001B0BDE8AE
:100EC000F04001F065BB00BF04F00401012282EA9A
:100ED000910141EA0C01C90740F0D480BEF1210F15
:100EE00040F0C88001B0BDE8F04001F06DBC00BF2B
:100EF000690740F1C780002B00F0C480418D0029B4
:100F000000F0C080416A11F8012B3A610FE000BF88
:100F1000690740F1B780002B00F0B480418D0029B3
:100F200000F0B0803969426A1170416A0131416252
:100F3000418D01394185A5E000200090786900903D
:100F4000B8690090009801B0F0BD00BF54F8341F9C
:100F50000A68526824F80A2C34F80A2C1AB1026C78
:100F600042F0040202647A68064622F400620846EF
:100F70007A60FFF76DFC01463046012910D02068E9
:100F800042F2E521C0F600010165FFF74FFC014682
:100F9000304629B1216804460A6D0846904720462C
:100FA000418D61B101684A6952072FD44A695206DE
:100FB00039D4418D19B1016C41F004010164016C17
:100FC00021B101B0BDE8F04001F01CBA2A2D08D1D2
:100FD00000210163282180F83D10044600F068FCE0
:100FE000204690F83D10282932D10021CFF6FF711C
:100FF000C16200212022016380F83D2080F83E106C
:1010000001B0BDE8F04000F081B900BF0969426A53
:101010001170426A016801324262428D013A428592
:101020004A695206C5D50969426A1170416A01319F
:101030004162418D01394185418D0029BBD1BEE717
:10104000406C062101EAD010F030386101B0F0BDEB
:10105000016B222918BF222D14D100212022016307
:1010600080F83D2080F83E1001B0BDE8F04000F06F
:101070001FBC00BF402D05D101B0BDE8F04001F01C
:101080003FBC00BF01B0F0BD428D52B1428D012A7C
:1010900016D1202918BF082926D1396821F480618A
:1010A00039600021009179690091B9690091009936
:1010B000396841F4007139600021016501B0F0BD6B
:1010C000428D022A0CD1102932D8012214238A40E1
:1010D000C0F201031A422BD04FF480622EE000BF11
:1010E0003A6842F480622BE011F5803F0CD13968F8
:1010F00021F48061396079680905D2D5396821F415
:101100008061396030E000BF122B01D10129C4D1C8
:101110001029F3D8012202FA01F11422C0F20102CF
:101120001142EBD0396841F4806139601CE000BFA6
:101130003A6822F480623A604FF400623B681A43D6
:101140003A607A6812050FD54A1E1F2A18D8012363
:1011500003FA02F248F28103C8F200031A420FD0E8
:10116000796841F48051796000210091796900919A
:10117000B969009100990021016501B0F0BD00BF7F
:1011800011F5803FECD0EFE7006845F20041C4F272
:101190000001884218BF704740F27000C2F20000A0
:1011A0000121C17070470000002804BF0120704772
:1011B000F0B581B0044690F83D0028B9002084F8CD
:1011C0003C00204600F02AFB242084F83D002068E3
:1011D000016821F001010160016841F400410160F2
:1011E000016821F40041016000F0D0FC636848F21E
:1011F000A16CC0F2010C40F60011C0F23D01634544
:101200003CBF48F28041C0F21E01884202D2012058
:1012100001B0F0BD4DF68361C4F21B31A0FB011299
:101220002168970CD1F804E04FF496762EF03F0534
:1012300045EA92454D60774348F638160D6AC0F28C
:101240004106A7FB067625F03F07634538BF960C9D
:10125000721C3A430A62CA6948F2A0664CF6FF77EC
:10126000C0F20106B34222EA07020BD801385B0044
:10127000B0FBF3F001306FF31F30042898BF042057
:101280001BE000BFA768013857B119277B43B0FBAB
:10129000F3F001306FF31F3070B100F5804007E0CC
:1012A00003EB4303B0FBF3F001306FF31F3018B1D1
:1012B00000F5004001E000BF01201043C86108684C
:1012C000D4E9072320F0C000104318430860886861
:1012D00048F2FF3204F10C0790438CCF18431043BF
:1012E000A6698860C86820F0FF0038433043C860B2
:1012F000086840F00100086000202021206484F884
:101300003D10206384F83E0001B0F0BD704700003E
:101310007047000070470000006845F20041C4F2C9
:101320000001884218BF704740F27000C2F200000E
:101330000121817070470000704700002DE9F047DF
:1013400084B0994616460F460446FFF769FB94F8A9
:101350003D10202927D10546206800BF81698907F3
:101360001CD5FFF75DFB411B20681A29F6D3816964
:101370008907F3D500202021206384F83D1084F8EC
:101380003E00206C04F13C0A40F020002064022062
:1013900000218AF8001004B0BDE8F087A2461AF8D0
:1013A0003C1F012904D1022004B0BDE8F08700BF32
:1013B00001228AF800200368DDE90D180C9ADB078A
:1013C00003D1036843F001030360036823F400635F
:1013D0000360222084F83D00402084F83E00002075
:1013E000206462626185608D394620850020CFF6D9
:1013F000FF70E062204632464B46CDE9008501F0A1
:10140000DFFA18B1012004B0BDE8F087208D08B3E1
:10141000022813D0012835D121680A6822F480629D
:101420000A60002203924A6903928A690392039A2E
:101430000A6842F400720A602CE000BF21680A6862
:1014400022F480620A600A6842F400620A600022A4
:1014500003921AE00020039020684169039181699A
:1014600003910399016841F400710160202084F820
:101470003D00002084F83E0000218AF8001004B0EE
:10148000BDE8F0870021039121684A6903928969C8
:10149000039103990427C0F201070CE0106908705A
:1014A000606A218D01306062481E2085618D01399E
:1014B00061850104DAD080B203280FD802284AD00F
:1014C00001282DD1204641462A4601F017FD00286B
:1014D00098D12068616A0069E1E700BF2046414673
:1014E0002A4601F00BFD00287FF48CAF2068616A6A
:1014F00000690870606A2268411C208D61620138B1
:101500002085638D013B638553695B07D1D580B22C
:101510000328C3D1106820F480601060BEE700BFCC
:101520002046394600224346009501F095FB0028ED
:101530007FF468AF2068616A026822F4806202600A
:1015400000690870606A218D01306062481E208544
:10155000608D01386085204639460022434600955B
:1015600001F07AFB00287FF44DAF2068616A0268C1
:1015700042F40072026000690870606A2268411CCF
:101580006162218D01392185618D01396185116982
:10159000417085E770B581B00024009490F83D401B
:1015A000202C3DD140F20804C2F200042468DDE999
:1015B000056E4FEAD40C4BF28954C1F2F844ACFBEF
:1015C000044C4FEA1C24192565430095009D013DFC
:1015D0000095009D45B3D0F800C0DCF81840A40782
:1015E0001AD5009C013C0094009CECB1DCF818403A
:1015F000A40711D5009C013C0094009CA4B1DCF828
:101600001840A40708D5009C013C0094009C5CB1E4
:10161000DCF81840A407D9D490F83C40012C0FD135
:10162000022001B070BD00BF00212022016380F8BC
:101630003D2080F83E1000F1400102203AE000BF5A
:10164000DCF80040E40705D1DCF8004044F0010478
:10165000CCF80040DCF80040002524F40064CCF80D
:101660000040222480F83D40402480F83E40002481
:1016700004644662A0F82AE0468DCFF6FF75068521
:10168000C56241648264C3640465DCF8001041F4FF
:101690008061CCF80010DCF8001041F48071CCF8C7
:1016A000001080F83C404FF0000036B10CF104010E
:1016B0004FF4E0620B681A430A6001B070BD00008D
:1016C0002DE9F04383B0994616460F460446FFF7CE
:1016D000A7F994F83D10202924D10546206800BFC1
:1016E000816989071AD5FFF79BF9411B20681A29E0
:1016F000F6D381698907F3D500202021206384F87F
:101700003D1084F83E00216C41F02001216484F8F2
:101710003C00022003B0BDE8F08300BF94F83C1009
:10172000012903D1022003B0BDE8F083012284F82F
:101730003C200368DDE90B180A9ADB0703D1036834
:1017400043F001030360036823F400630360212076
:1017500084F83D00402084F83E000020206462624E
:101760006185608D394620850020CFF6FF70E062EC
:10177000204632464B46CDE9008501F0ABF918B161
:10178000012003B0BDE8F083208D98B92046414682
:101790002A4601F003FA88B3206C0428F0D12068AF
:1017A000016841F400710160012003B0BDE8F083DD
:1017B0000004EBD0204641462A4601F0E7FB002812
:1017C000EAD1616A2268084610F8013B1361238D53
:1017D0006062581E2085678D013F678557697F07C6
:1017E000E6D50704E4D048781061881C6062981E32
:1017F0002085618D01396185DAE700BF20680168C5
:1018000041F400710160202084F83D00002084F83C
:101810003E0084F83C0003B0BDE8F083B0B586B06C
:1018200045F200410068C4F200010024884205949A
:10183000CDE903440294019402D006B0B0BD00BFCC
:1018400043F630050094C4F20205286840F0020017
:101850002860286800F0020000900098C0200190E5
:101860001220CDE90204032004900420059001F524
:10187000D83001A9FFF704F800942869002140F44A
:10188000001028612869002200F4001000900098E0
:101890001F2000F08DF81F2000F078F82020002194
:1018A000002200F085F8202000F070F806B0B0BDEE
:1018B000704700007047000040F2000040F29C11A9
:1018C000C2F20000C2F2000100780A681044086009
:1018D0007047000080B543F60040C4F20200016882
:1018E00041F400710160016841F4806101600168A8
:1018F00041F480710160032000F086F80F2000F0B1
:1019000005F800F027F8002080BD000070B540F217
:101910000006C2F2000640F208013278C2F200016D
:101920004FF47A730968B3FBF2F20446B1FBF2F1AB
:10193000084600F061FB0F2C4FF0010508D838B9BC
:101940004FF0FF3021460022002500F031F874608E
:10195000284670BD82B0002043F640010190C4F2D9
:1019600002014A6842F480424A604A6802F48042B6
:101970000192019A0090086840F080500860086861
:1019800000F080500090009802B07047002848BFD7
:10199000704700F01F01012202FA01F11C2202EA45
:1019A000D0004EF20012CEF20002815070470000CB
:1019B00010B54EF60C5CCEF2000CDCF80030C3F330
:1019C000022E8EF00704042C28BF0424BEF103036A
:1019D0004FF0FF3E0EFA04F438BF0023A1439940B4
:1019E0000EFA03F39A43114300F00F0200F1604333
:1019F0000901043A03F564436244002848BF02F138
:101A00000C03197010BD00004EF60C51CEF200010F
:101A10000A684FF6FF031A4060F30A2242F0806022
:101A200040F0FD7008607047002804BF0120704737
:101A30002DE9F04143F60808C4F202080446D8F83C
:101A4000F8030D4600F00700814207D988F8F853E3
:101A5000D8F8F80300F00700A84277D12068810782
:101A600017D5410705D5D8F8001041F4E051C8F862
:101A70000010010705D5D8F8001041F46041C8F8FE
:101A80000010D8F80010A26821F0F0011143C8F846
:101A90000010C00740D1D8F8F80300F007008542D5
:101AA00007D288F8F853D8F8F80300F00700A842E6
:101AB0004CD12068410707D5D8F80010E26821F41E
:101AC000E0511143C8F80010000708D5D8F800000D
:101AD000216920F4604040EAC100C8F8000000F02D
:101AE0007DF8D8F8001043F21162C1F30311C0F67B
:101AF0000002515C40F2080220FA01F140F20400B9
:101B0000C2F200000068C2F200021160FFF7FEFEA0
:101B10000020BDE8F08100BF6068811E022907D265
:101B200058F8081C89015CBF0120BDE8F08111E074
:101B3000012807D158F8081C89035CBF0120BDE8C3
:101B4000F08107E058F8081C890703D40120BDE89C
:101B5000F08100BFD8F8001021F003010843C8F855
:101B60000000FEF75DFF064641F28837D8F8000016
:101B7000616800F00C00B0EB810F8CD0FEF750FFD5
:101B8000801BB842F2D90320BDE8F08140F2080082
:101B900043F60801C2F20000C4F2020100680968BD
:101BA00043F22162C1F38221C0F60002515CC840B9
:101BB0007047000040F2080043F60801C2F200003E
:101BC000C4F202010068096843F22162C1F34231A4
:101BD000C0F60002515CC8407047000010B543F6E3
:101BE0000404C4F202046168C1F3810142F20040BE
:101BF000C0F2F400DFE801F002040A0210BD00BFE9
:101C000047F64000C0F27D1010BD00BF206821687B
:101C10002368490247F64001C0F27D1100F03F02FF
:101C2000C3F388105CBF42F20041C0F2F401A1FB93
:101C300000010023FEF736FB21680222C1F30141B7
:101C400002EB4101B0FBF1F010BD0000002804BF21
:101C5000012070472DE9F04182B00446007843F638
:101C60000006C007C4F202060CD0B06800F00C00F9
:101C7000042840F081803068800303D56068002824
:101C800000F06881207880071BD5B06810F00C0F39
:101C900009D0B06800F00C00082840F08780706818
:101CA000400200F183803068800703D5E068012896
:101CB00040F050813068216920F0F80040EAC1000E
:101CC00030602078000713D4207840072AD4A56913
:101CD000002D00F03A81B06800F00C00082840F0B8
:101CE000A580012D40F00E81012002B0BDE8F081F9
:101CF0006069002800F082800020C4F247200121A2
:101D0000C0F8801EFEF78CFE054600BF706F80078E
:101D1000DAD4FEF785FE401B0228F7D9032002B073
:101D2000BDE8F081306C5FEAC0080AD40020019061
:101D3000306C40F080503064306C00F08050019086
:101D4000019847F20007C4F200073868C00547D47D
:101D5000386840F480703860FEF762FE054600BFC8
:101D60003868C0053CD4FEF75BFE401B0228F7D95B
:101D7000032002B0BDE8F081B06800F00C00082834
:101D800003D1706840023FF576AF61683068B1F505
:101D9000803F07D0B1F5A02F40F09A8040F480201A
:101DA0003060306840F4803030609AE0E0680028AD
:101DB00040F20000C4F247205CD001210160FEF730
:101DC0002FFE0546306880073FF574AFFEF728FE0A
:101DD000401B0228F6D9032002B0BDE8F08100BF05
:101DE000A168306F012905D0052955D140F00400C4
:101DF0003067306F40F00100306756E00020C4F2D9
:101E000047200021C0F8801EFEF70AFE054600BFED
:101E1000706F80077FF558AFFEF702FE401B022867
:101E2000F6D9032002B0BDE8F08100BF0027C4F25C
:101E3000472700203866FEF7F3FD022D05460DD139
:101E40003068800140F18A80FEF7EAFD401B0228DD
:101E50004FF00300F4D902B0BDE8F0813068800192
:101E600073D5FEF7DDFD401B02284FF00300F5D9C6
:101E7000F1E700BF00210160FEF7D2FD054600BF7B
:101E8000306880077FF51DAFFEF7CAFD401B0228B2
:101E90004FF00300F4D9DEE720F001003067306F27
:101EA000002920F0040030677AD0FEF7B9FD05461E
:101EB00041F28837306F800700F18480FEF7B0FD73
:101EC000401BB842F6D9032002B0BDE8F08100BF44
:101ED00020F4803030603068002920F480203060A9
:101EE0007AD0FEF79DFD0546306880033FF5CAAE07
:101EF000FEF796FD401B6428F6D9032002B0BDE82A
:101F0000F08100BF7068E16900F480028A4221D14B
:101F1000216A00F03F028A421CD147F6C071626A12
:101F20000140B1EB821F15D1A16A4FF6FF73C903BF
:101F3000994300F44032A1F580318A420AD1E16A26
:101F400000F07060B0EB016F04D1002002B0BDE87A
:101F5000F08100BF012002B0BDE8F08104F11C0552
:101F60002FCD084340EA8210D9034FF6FF72914308
:101F7000A1F5803140EA05600843706001203866B1
:101F8000FEF74EFD044600BF30688001DDD4FEF749
:101F900047FD001B02284FF00300F5D95BE700BFA7
:101FA000FEF73EFD054641F2883700BF306F8007DF
:101FB00008D5FEF735FD401BB8424FF00300F5D9B8
:101FC00049E700BFB8F1000F3FF581AE306C20F05B
:101FD000805030647BE600BFFEF722FD054600BF5F
:101FE000306880037FF54EAEFEF71AFD401B642873
:101FF0004FF00300F4D92EE7411E0020B0EB116F23
:102000001CBF012070474EF21002CEF20002516058
:102010004EF62351CEF20001F0230B7007219060A1
:1020200011607047002804BF0120704710B50446B6
:1020300090F8410028B9002084F84000204600F0C4
:1020400021F8242084F841002068C16821F400515F
:10205000C160204601F00CF82068016921F490412C
:102060000161416921F02A014161C16841F40051D7
:10207000C16000202021606484F8411084F842107F
:10208000606310BD2DE9F04387B045F2000500689C
:10209000C4F200050026A8420696CDE90466039620
:1020A000029603D007B0BDE8F08300BF43F63000CE
:1020B0000196C4F20200016902AC41F48011016191
:1020C00001694FF0020801F4801101910199019614
:1020D00001684FF0030941F004010160016808271D
:1020E00001F00401019101990196016841F0080194
:1020F00001600068214600F00800019001984FF44B
:102100008050029005F5DC30CDE90386CDF81490BF
:102110000697FEF7B5FB0420CDE9020805F5DE3091
:102120002146CDE904690697FEF7AAFB07B0BDE892
:10213000F08300002DE9F04381B0044690F841009F
:10214000202809D100294FF0010018BF002A07D12B
:1021500001B0BDE8F08300BF022001B0BDE8F0830C
:102160000020606421201D460E4684F84100174679
:10217000FEF756FCA784E784A1688146B1F5805F2D
:1021800002D1206900285DD037460020E28C21680A
:10219000002A5DD06A1C24D0002D4AD0804600BFA2
:1021A0000868000608D4FEF73BFCA0EB0900A84233
:1021B0007AD82168C868F3E717B117F8010B04E073
:1021C00038F8020B00276FF35F204860E08C01387D
:1021D000E084E08C0028E3D13AE000BF0A681206F0
:1021E00009D40A68120606D40A6812065CBF0A6897
:1021F0005FEA0262F2D51FB117F8012B05E000BFBC
:1022000030F8022B00276FF35F224A60E28C013A1C
:10221000E284E28C002AE4D11AE000BF30F8022BFD
:1022200000276FF35F224A60E28C013AE284E28C7D
:1022300072B10A68120635D5002FEFD017F8012BBE
:10224000F1E700BF00273046E28C2168002AA1D1C7
:10225000086840061ED42DB3681C14D108684006D7
:102260002AD40868400627D40868400624D40868A1
:1022700040064FF00000F1D50DE000BF2068C168B6
:102280000068400618D4FEF7CBFBA0EB0900A8427B
:10229000F4D909E00020202184F8411001B0BDE804
:1022A000F08300BFFEF7BCFB0320202184F841101F
:1022B00001B0BDE8F08300BF0020202184F8411068
:1022C00001B0BDE8F0830000FEE7000040F2C80066
:1022D000C2F20000FEF7AEBB40F2C800C2F200003E
:1022E000FEF750BC10B581B000210091806B40F228
:1022F0000801C2F2000190F83DC009684BF2895212
:10230000C908C1F2F842A1FB0212110A232251436B
:102310000091009901B30099013900910268116898
:1023200089051DD50099B9B100990139009111684D
:10233000890515D5009979B1009901390091116885
:1023400089050DD5009939B10099013900911168BD
:102350008905DED404E000BF016C41F02001016476
:10236000446B4FF0000E002C1CBF0021E163816B19
:1023700000291CBF0022CA630268002C136823F4E2
:1023800080631360A0F82AE018BFC4F850E0002969
:102390001CBF00230B65116821F00101116090F84A
:1023A0003D1060290CD1202180F83D10002180F8DB
:1023B0003E10016401B0BDE81040FEF737BB00BF1E
:1023C0000CF02801282911D1116841F00101116098
:1023D000116841F48061116000210163282180F8B7
:1023E0003D1001B0BDE81040FEF7CEBE202180F8C0
:1023F0003D10002180F83E1001B0BDE81040FEF70E
:10240000C3BE000010B5044690F83D1090F83E00A1
:10241000B0F1100218BF0122403818BF012002425B
:1024200008BF222934D001F0280028283AD1002002
:102430002063282084F83D0020684168090542D5C2
:10244000416821F400614160606B90F8351001290A
:1024500058D1A06B42F2E521C0F600010165FEF7FC
:10246000E5F9002861D020684169490606D5006970
:10247000616A0870616A206801316162016821F057
:1024800001010160202084F83D00A06B4BE000BFFB
:102490002068026822F4006202604268120505D5D5
:1024A0000CE000BF20684268120507D4602905D0FF
:1024B000202184F83D10002184F83E100021216382
:1024C00041680905BCD494F83D10602950D1202101
:1024D00084F83D10002121644169490606D5006950
:1024E000616A0870616A206801316162016821F0E7
:1024F000010101602046FEF799FA206C000717D110
:102500001BE000BF42F2E521C0F600010165FEF7C5
:102510008DF950B12168606B0A6822F001020A60EF
:10252000202184F83D10016D8847206C000704D0FD
:102530002068416821F4E061416094F83D00216C1D
:10254000490758BF10BD282810D10020CFF6FF70D2
:10255000E06200212020216384F83D00204684F8B9
:102560003E10BDE81040FEF7D1BE00BF10BD00BF59
:102570004169490605D50069616A0870606A0130E1
:1025800060622046FEF700FE206C0007D0D1D4E741
:10259000C16A428D042A07D10168426A4B6823F45C
:1025A00080634B60096911E0428D032A16D10268ED
:1025B0000229536823F48063536005D0042903D0B3
:1025C000116821F4806111601169426A1170416AD9
:1025D00001314162418D013941857047428D022AA6
:1025E00012D14A1E0F2A19D8DFE802F00812181279
:1025F00018181818181818181818180802681368E6
:1026000023F480630EE000BF0168426ACAE700BF9E
:102610000268136843F4806304E000BF0268136833
:1026200043F4007313601269436A1A70426AD0F867
:1026300000C0531C4362438D013B4385DCF81030DE
:102640005370426A036801324262428D013A428508
:102650005A6822F440725A60202280F83D2090F897
:102660003E300022402B80F83E2003D10263FEF76B
:1026700053BE00BFB1F1080218BF1222203918BFA3
:1026800011460163FEF744BE81B090F83D10222947
:1026900010D1C16A428D042A0ED30168426A0969C9
:1026A0001170416A01314162418D01394185418D8D
:1026B000032959D001B07047C36A012A54D8022BAC
:1026C00052D00022009240F20802C2F200021268C8
:1026D0004BF28953D208C1F2F843A2FB03231A0A32
:1026E00002EB82020092009A013A0092009A002ABC
:1026F00042D0026813689B0517D5009B013B0093ED
:10270000009BCBB313689B050FD5009B013B009347
:10271000009B8BB313689B0507D5009B013B00937F
:10272000009B4BB313689B05DDD4136823F48063CF
:102730001360536823F4E06353601269436A1A70AC
:10274000426A01324262428D013A4285202280F87B
:102750003D2090F83E300022402B80F83E2027D1CB
:10276000026301B0FEF7D8BD0068416821F48061C2
:10277000416001B0704700BF016C41F0200101646D
:102780000168426A4B6823F4E0634B600969117089
:10279000416A01314162418D01394185202180F832
:1027A0003D10002180F83E1001B0FEF7EDBC00BFE7
:1027B000B1F1080218BF1222203918BF1146016377
:1027C00001B0FEF7A5BD0000C16A90F83D20212AA6
:1027D00018BF7047428D4AB1416A026811F8013B47
:1027E00013614162418D01394185704711F5803F88
:1027F00018BF082918D101684A6822F4E0624A60CB
:102800000A6842F400720A6000212022016380F805
:102810003D2090F83E2080F83E10402A08BFFEF789
:102820008BBDFEF777BD00BF2029E4D001684A6860
:1028300022F4E0624A6011210163002180F83E1019
:10284000202180F83D10FEF765BD000090F83D1096
:1028500090F83EC0C26A038D002B08BF212919D011
:10286000212905D0BCF1400F08BF222900D07047B4
:10287000418D69B390F83E10402908BF00F040B880
:10288000416A026811F8013B13614162418D0139CF
:102890004185704712F5803F18BF082A1ED1016894
:1028A0004A6822F4E0624A600A6842F400720A60F0
:1028B00000212022016380F83D2090F83E2080F81E
:1028C0003E10402A08BFFEF737BDFEF723BD00BF0C
:1028D0000068416821F4806141607047202ADED0A1
:1028E00001684A6822F4E0624A6011210163002114
:1028F00080F83E10202180F83D10FEF70BBD00004F
:1029000090F83D10026D5AB1026D012A14D1016890
:10291000826CD2B20A61016D01310165704700BF5E
:10292000C26C816C012A15D10268C9B21161016DB6
:1029300002310165704700BF026D022A12D12229BF
:1029400018D101680A6842F480720A60016D013191
:10295000016570470268C1F307211161016D013102
:102960000165704700684169090644BF00210161A3
:10297000704700BF428D5AB1212909D1416A0268CE
:1029800011F8013B13614162418D01394185704766
:10299000428D002A08BF2129EAD101684A6822F441
:1029A000E0624A600A6842F400720A600021202254
:1029B000016380F83D2080F83E10FEF7BDBC0000AA
:1029C0002DE9F04782B0044600689A460B9D0A9EA6
:1029D0000368914643F48062026002680F4642F445
:1029E0008071016020464FF00111002233460095AE
:1029F00000F032F950B120680068C00544BF4FF4C0
:102A000000702064032002B0BDE8F08740F20208A5
:102A10002068C0F2010807F0FE0707612046414622
:102A200032462B4600F0FEF920B1012002B0BDE88D
:102A3000F08700BF0020019020682A46416901917B
:102A40008069314601900198204600F09FFAB0B9A4
:102A50002068BAF1010F09D04FEA1921016120461F
:102A600031462A4600F092FA48B920685FFA89F1A7
:102A70000161204631462A4600F088FA60B1206C98
:102A80000428D2D12068016841F40071016001205E
:102A900002B0BDE8F08700BF20680022016833461D
:102AA00041F48071016020464FF00111009500F063
:102AB000D3F800289FD147F0010C276820464146F3
:102AC00032462B46C7F810C002B0BDE8F04700F010
:102AD000A9B900002DE9F04383B0044600680F4611
:102AE00001680A9D0B9E41F48071994690460160F1
:102AF00020464FF0011100222B46009600F0ACF862
:102B000050B120680068C00544BF4FF400702064D5
:102B1000032003B0BDE8F083206807F0FE010161E7
:102B20000221C0F2010120462A46334600F07AF91C
:102B300020B1012003B0BDE8F08300BF0020029067
:102B400020683246416902918069294602900298C4
:102B5000204600F01BFA58B1206C0428E9D1206807
:102B6000016841F400710160012003B0BDE8F08309
:102B70002068B9F1010F0AD04FEA182101612046FF
:102B80002946324600F002FA0028E5D120685FFAB3
:102B900088F10161002003B0BDE8F08370B50368DF
:102BA000044653F8140F400711D40E46481C29D090
:102BB00086BB00BF1868400527D4FDF731FF2368A6
:102BC00053F8140F400737D518684007F2D5002096
:102BD00070BD00BF18684007F9D41868400514D4C8
:102BE00018684007F3D4186840050ED418684007E9
:102BF000EDD41868400508D4186840074FF000006D
:102C000048BF70BD18684005E4D56FF48060186057
:102C1000042012E0154603E053F8140F4007D6D401
:102C200018684005F1D4FDF7FBFE401B2368B04255
:102C3000F2D958694007EFD42020002120222163D7
:102C400084F83D2084F83E10226C1043206401205B
:102C500084F83C1070BD00002DE9F0410546006885
:102C60001E46144601F47F0201338FB242D0DDF8D4
:102C70001880B2F5803F40F0878040693840C01B23
:102C8000B0FA80F04009844240F0C8804EB924E098
:102C900040693840C01BB0FA80F04009844240F0DF
:102CA000BD80FDF7BDFEA0EB08012868B142EFD959
:102CB00041693940C91BB1FA81F149098C42E7D118
:102CC0009BE000BF40693840C01BB0FA80F040096B
:102CD00084424FF0000040F0A280FDF7A1FE28687A
:102CE00041693940C91BB1FA81F149098C42E9D1E6
:102CF00083E000BFB2F5803F24D100BF4169394075
:102D0000C91BB1FA81F149098C4240F087804169C1
:102D10003940C91BB1FA81F149098C4240F07E80EB
:102D200041693940C91BB1FA81F149098C4275D119
:102D300041693940C91BB1FA81F149098C42DDD0A2
:102D40006CE000BF81693940C91BB1FA81F14909C2
:102D50008C4263D181693940C91BB1FA81F14909BB
:102D60008C425BD181693940C91BB1FA81F14909B3
:102D70008C4253D181693940C91BB1FA81F14909AB
:102D80008C42DFD04AE000BF80693840C01BB0FAF7
:102D900080F04009844241D146B923E0806938403F
:102DA000C01BB0FA80F04009844237D1FDF738FEED
:102DB000A0EB08012868B142F0D981693940C91BEC
:102DC000B1FA81F149098C42E8D116E080693840B6
:102DD000C01BB0FA80F0400984424FF0000018BFD9
:102DE000BDE8F081FDF71CFE286881693940C91BE8
:102DF000B1FA81F149098C42E8D1002020212863F1
:102E000085F83D1085F83E00296C41F020012964C9
:102E100085F83C000120BDE8F08100BF0020BDE83E
:102E2000F0810000F0B581B0044600681D4643699A
:102E30008FB203EA0701B94202D1002001B0F0BD10
:102E40004169164601323CD0490512D47EB300BF19
:102E5000FDF7E6FD411B2068B14203D941693940C5
:102E6000B9422BD141693940B942E6D0416949059F
:102E7000EED5016841F4007101606FF48061416139
:102E8000042000212022216384F83D2084F83E1094
:102E9000226C1043206484F83C10012001B0F0BD86
:102EA00041693940B942C8D041694905E1D4FDF7CB
:102EB000B7FD206841693940B942F1D02020E0E7F0
:102EC00041694905D5D441693940B942B5D0416914
:102ED0004905CED441693940B942AED0416949056E
:102EE000C7D441693940B942A7D041694905C0D426
:102EF00041693940B942E3D19FE7000070B504460B
:102F00000068154650F8143F5A063DD40E4629B9BC
:102F100026E000BF50F8141F490635D40168C906E1
:102F200021D4FDF77DFD411B2068B142F2D94169F2
:102F30004906EFD400202021206384F83D1084F856
:102F40003E00206C40F0200018E000BFFDF768FD57
:102F5000206850F8141F4906ECD50168490613D4BF
:102F60000168C906F2D56FF0100101600020202130
:102F7000206384F83D1084F83E00206C206400201B
:102F800084F83C00012070BD002070BD70B503685E
:102F9000044653F8140F000611D40E46481C29D0DD
:102FA00086BB00BF1868400527D4FDF739FD2368AC
:102FB00053F8140F000637D518680006F2D5002024
:102FC00070BD00BF18680006F9D41868400514D415
:102FD00018680006F3D4186840050ED41868000677
:102FE000EDD41868400508D4186800064FF00000BA
:102FF00048BF70BD18684005E4D56FF48060186064
:10300000042012E0154603E053F8140F0006D6D44E
:1030100018684005F1D4FDF703FD401B2368B0425A
:10302000F2D958690006EFD4202000212022216324
:1030300084F83D2084F83E10226C10432064012067
:1030400084F83C1070BD0000FEE70000FEE70000C1
:103050007047000070470000FEF72EBC4EF6885007
:10306000CEF20000016841F4700101607047000079
:10307000B0B50446006804F108030ECB0569194396
:1030800025F440552A4302616269E3691143C2682D
:10309000194349F20C639A431143C1604169A26923
:1030A00021F4407141F20043114340F48062C4F2C4
:1030B00001039A42416103D1FEF77CFD02E000BFAB
:1030C000FEF764FDE1694FF69C7563681922C0F64E
:1030D000FF75B1F5004FA0FB02011FD15A00DB0FB5
:1030E000FDF7E0F848F21F51C5F2EB11A0FB0123F8
:1030F0005A0905F1805302FB0300322303EBC000A1
:10310000A0FB01014FF4F87000EA111000EB02106F
:10311000C1F34211084421688860B0BD9A009B0F3A
:10312000FDF7C0F848F21F51C5F2EB11A0FB0123D7
:103130005A0902FB0500322303EB0010A0FB01013A
:10314000F02000EA511000EB0210C1F343110844D3
:1031500021688860B0BD0000FEE7000096B043F62D
:103160003005C4F20205FEF7B5FB0AAC204630215B
:10317000FDF77BFA00260996CDE90766CDE90566DD
:103180000496286940F080502861286900F080503A
:103190000490049847F200000496C4F2000001680D
:1031A00041F480410160006800F48040049004987C
:1031B00002200A9001200D9010200E9020461096BB
:1031C000FEF744FD10B172B6FEE700BF0F20CDE957
:1031D000050605A80021CDE907660996FEF724FC3F
:1031E00010B172B6FEE700BF00240A94286848F2C6
:1031F000A06240F00100286028684FF4804300F08E
:1032000001000A900A980A942868C0F2010240F06E
:1032100004002860286800F004000A900A980A94C4
:10322000286840F008002860286800F008000A902C
:103230000A980A94286840F002002860286845F23D
:10324000000500F002000A900A98C4F2000540F25E
:10325000C80005F58061C2F2000080E81600C0E9F0
:103260000343C0E90544C0E90744FDF79DFF18B1D9
:1032700072B600BFFEE700BF40F2700BC2F2000B57
:10328000584640F8105F4FF4E1310C22C0E90114B8
:10329000C0E90344C0E90524C461FEF7C3FE18B1C8
:1032A00072B600BFFEE700BF0BF110099BA14846B4
:1032B0001C2264236425FEF73DFF0120CDE90105B2
:1032C00040F2C800C2F20000D02175220123CDF8DF
:1032D00000B0FEF733F808B198A11CE040F21C15CD
:1032E0009BF80030C2F200059AA228468021FDF723
:1032F00051F82846FDF79AF982B2484629466423D8
:10330000FEF718FF9BF80000702803D19CA14846E7
:10331000132202E094A1484617226423FEF70AFF15
:103320000020594601F8010F0120CDE9001040F2BC
:10333000C8006427C2F20000D0216B22012302974B
:10334000FEF7BEF920B193A148461A2206E000BF5D
:1033500043F29461C0F60001484618226423FEF748
:10336000E9FE00208BF8000064200121CDE9011066
:1033700040F2C800C2F20000D0216B220123CDF838
:1033800000B0FDF7DBFF38B143F24161C0F6000148
:103390004846192215E000BF5D4640F21C1615F89C
:1033A000103BC2F2000643F22962C0F6000230462A
:1033B0008021FCF7EFFF3046FDF738F982B228464E
:1033C00031466423FEF7B6FE40F2C80006270BF133
:1033D0000A06C2F20000D0213B2201230396CDE968
:1033E0000067FEF7D7F838B143F25B61C0F6000121
:1033F0004846222206E000BF43F2AD61C0F600015C
:10340000484623226423FEF795FE40F2C80840F2A6
:103410001C1500244FF0060AC2F20008C2F2000593
:1034200009E000BF43F2AD614846C0F60001232227
:103430006423FEF77FFE9BF80200002848D05F4619
:1034400037F80A0F07F8084C01BA7A88090C27F8F0
:10345000061C11BABE88090C27F8041C31BA090CE5
:10346000D4BA43F2D16227F8021CC3BAF6BA28468E
:103470008021C0F60002CDE90046FCF78BFF28460C
:10348000FDF7D4F8B91D82B2084629466423FEF739
:1034900051FE4FF4FA70FDF7DFF94046D0213B2290
:1034A0000123CDE9007AFEF775F838B143F25B618C
:1034B0004846C0F60001222206E000BF43F2AD619B
:1034C0004846C0F6000123226423FEF733FE0024A1
:1034D0009BF803000028AED043F27E614846C0F658
:1034E0000001152264238BF80340FEF723FE4FF4FE
:1034F0007A70FDF7B1F9039F4046D0213B220123AA
:10350000CDE9007AFEF746F800288BD043F25B61E4
:103510004846C0F6000122228AE700BF4932432014
:10352000496E746572727570742044656D6F2053B6
:10353000746172740D0A0D0A000000005265616426
:103540002057484F5F414D5F49206661696C656453
:103550002E0D0A0057484F5F414D5F49203D2030F6
:1035600078253032580D0A004D5055363530302010
:103570006E6F742064657465637465642E0D0A0053
:103580004D5055363530302064657465637465641C
:103590002E0D0A005057525F4D474D545F31207732
:1035A00072697465206661696C65642E0D0A00009D
:1035B00030380A2801D20120704700207047F1EE10
:1035C000100A4FF6FF71C0F2C03120EA010040F04E
:1035D0004070E1EE100A70473031323334353637FF
:1035E0003839414243444546403058003031323347
:1035F0003435363738396162636465664030780047
:1036000004000008000000000000000200010000AB
:10361000100000000000000000010203040607087B
:103620000900000000010203045057525F4D474D4E
:10363000545F31203D203078253032580D0A0D0A74
:103640000052656164205057525F4D474D545F31C1
:10365000206661696C65642E0D0A00537461727492
:103660002049324320696E746572727570742072DD
:10367000656164206661696C65642E0D0A004932DB
:1036800043206572726F72206F6363757272656436
:103690002E0D0A005057525F4D474D545F31207731
:1036A0007269746520646F6E652E0D0A0053746133
:1036B00072742049324320696E7465727275707439
:1036C000207265616420737563636573732E0D0AE0
:1036D00000414343454C5F58203D2025642C204148
:1036E0004343454C5F59203D2025642C20414343F2
:1036F000454C5F5A203D2025640D0A002037000804
:103700000000002010000000EC0100083037000825
:1037100010000020900700000C02000800000000CC
:1037200001000000100000000024F4000000000070
:040000050800018965
:00000001FF
