:020000040800F2
:1000000030070020750200081124000809240008A8
:100010000D2400084D0E00089D2800080000000077
:100020000000000000000000000000009927000808
:10003000510E000800000000152400089D2700084C
:100040008F0200088F0200088F0200088F0200084C
:100050008F0200088F0200088F0200088F0200083C
:100060008F0200088F0200088F0200088F0200082C
:100070008F0200088F0200088F0200088F0200081C
:100080008F0200088F0200088F0200088F0200080C
:100090008F0200088F0200088F0200088F020008FC
:1000A0008F0200088F0200088F0200088F020008EC
:1000B0008F0200088F0200088F0200088F020008DC
:1000C0008F0200088F0200088F0200088F020008CC
:1000D000192400088F0200088F0200088F02000810
:1000E0008F0200088F0200088F0200088F020008AC
:1000F0008F0200088F0200088F0200088F0200089C
:100100008F0200088F0200088F0200088F0200088B
:100110008F0200088F0200088F0200088F0200087B
:100120008F0200088F0200088F0200088F0200086B
:100130008F0200088F0200088F0200088F0200085B
:100140008F0200088F0200088F0200088F0200084B
:100150008F0200088F0200088F0200088F0200083B
:100160008F0200088F0200088F0200088F0200082B
:100170008F0200088F0200088F02000800000000B4
:100180008F0200088F02000800F002F800F062F809
:1001900014A696E8000CB244B344DA4501D100F04D
:1001A00059F8BAE80F000FA696E83000A5EB040551
:1001B00004EB0607AAEB0704A7F101074FEA1515A0
:1001C0004FEA3414A4F10104AC4201D300F042F828
:1001D00013F0010F18BFFB1A43F0010300F001F800
:1001E000DBE71847E836000008370000103A24BF64
:1001F00078C878C1FAD8520724BF30C830C144BF8C
:1002000004680C6070470000704700000023002461
:1002100000250026103A28BF78C1FBD8520728BF16
:1002200030C148BF0B607047662903F051827829BE
:1002300000F00081002070471FB503F03CFA00F089
:1002400091FC04000020002103F0A8F9E0601FBD2C
:1002500010B510BD00F086FD1146FFF7EDFF02F06E
:100260001FFB00F0A4FD03B4FFF7F2FF03BC00F096
:10027000E5FD00000948804709480047FEE7FEE722
:10028000FEE7FEE7FEE7FEE7FEE7FEE7FEE7FEE746
:1002900004480549054A064B70470000A12700089D
:1002A00089010008300100203007002030030020C1
:1002B0003003002053EA020C00F069802DE9F04B76
:1002C0004FF00006002B1FBFB3FA83F503FA05F4C5
:1002D00024FA05F65E4012BF1643B2FA82F502FA1E
:1002E00005F4C5F120051EBF22FA05FC44EA0C0402
:1002F000203556EA044C4FEA144418BF641C4FF0F2
:1003000000084FF00009904271EB030C39D300292B
:1003100019BFB1FA81F701FA07F6B0FA80F700FACF
:1003200007F6C7F120071EBF20FA07FC46EA0C06B5
:100330002037B6FBF4FCA7EB0507103F07F01F0BB7
:10034000CBF120062CFA06F60CFA0BFB44BFB346A1
:100350000026202FA4BF5E464FF0000B5BEA060C80
:1003600008BF4FF0010B19EB0B0948EB0608ABFB7C
:10037000027C06FB02CC0BFB03CCC01B71EB0C0117
:10038000C1E70B46024641464846BDE8F08B13B52F
:10039000084318BF4FF0FF300146AFF30080BDE8BF
:1003A0001C4070470FB41CB50C0007AA009007D082
:1003B0004142A14202D32044401E01E04FF0FF30F1
:1003C000074B7B4469460190069800F0B0FB002083
:1003D000002C01D0009908701CBC5DF814FB0000D3
:1003E0008F07000070B5044685690068C10601D515
:1003F000302600E02026C00707D070BDD4E90121D7
:1004000030469047206A401C20626D1EF6D570BDB4
:1004100070B5044685690078C00707D170BDD4E97E
:10042000012120209047206A401C20626D1EF6D5D5
:1004300070BD000070B504460D4621461068AFF34C
:1004400000802188090502D50F4A7A4402E00E4A4D
:100450007A440E32002104F1240305E000F00F0677
:100460000009965D5E54491C0028F7D120780023CE
:10047000000704D5702D02D009B1022311322046A5
:10048000BDE8704000F0E7B8863200002DE9F05F6B
:10049000894604464FF0000ADFF824B1FB44C0F857
:1004A00020A02046E168884700287DD0252806D076
:1004B000D4E901219047206A401C2062F1E7002521
:1004C0005F462046E16888472028064607DB312E34
:1004D00005D2B81910F8200C08B10543F1E7A807B8
:1004E00001D525F00405C4F81CA00027C4F818A005
:1004F0002A2E09D0304603F049F838B304EB8708B8
:10050000303EC8F8186019E059F8041B204604EB87
:1005100087029161E1688847012F064618D1E0699A
:10052000002820DA25F020051DE0D8F8180000EB9F
:10053000800006EB40003038C8F818002046E1681B
:100540008847064603F022F80028EED1012F0AD092
:100550002E2E08D12046E16888477F1C0646022FD0
:1005600045F02005C4DBA069002803DA404245F0CD
:100570000105A061E80701D025F01005A6B1A6F19C
:100580004100192802D8203645F400654A46314614
:10059000204625604D46FFF747FE60B1012807D091
:1005A000ED1D25F0070000E007E000F1080978E7FD
:1005B00005F1040975E730467AE7206ABDE8F09F47
:1005C0005C32000010B5431C02E010F8011B71B151
:1005D0008107FAD14FF0013202C88C1A8C4314EA19
:1005E000C211F9D0C01A0A0603D0C01E10BDC01A2D
:1005F00010BD0A0401D0801E10BD0902FCD0401EAF
:1006000010BD4FF0000200B51346944696462039BF
:1006100022BFA0E80C50A0E80C50B1F12001BFF4BB
:10062000F7AF090728BFA0E80C5048BF0CC05DF821
:1006300004EB890028BF40F8042B08BF704748BF6F
:1006400020F8022B11F0804F18BF00F8012B7047E3
:100650007047704770472DE9F0470D46994692461E
:10066000044600F124080168880604D5E06921F0F9
:100670001001216000E00120A84201DD471B00E0DD
:100680000027A1697A1902EB0900081AA0612078F5
:10069000C00602D42046FFF7A5FE002608E0D4E9F4
:1006A00001211AF806009047206A401C761C20623F
:1006B0004E45F4DB2078C0060AD52046FFF792FEAF
:1006C00006E0D4E9012130209047206A401C2062D6
:1006D000381EA7F10107F4DC07E0D4E9012118F87E
:1006E00005009047206A401C2062281EA5F10105E4
:1006F000F3DC2046FFF78CFE2078000602D50220AE
:10070000BDE8F0870120FBE72DE9FF4F0C461E46B0
:100710004FF0FF378BB0D2E90001DDF860800A901E
:100720008A46C1F30A5505B93D46002108464FF0F7
:100730000000BAF1000F00F4400005DA00EB800081
:100740004FF4400101EA50004FEA9059B9F1010F0E
:1007500000DDB9460A9850EA4A000ED044F610501F
:10076000A5F2FF3545432F14B8F1000F1ED0754296
:10077000291E1EDDC9F100021CE0B8F1010F4FF087
:10078000000001D0302103E0F24305E02154401C79
:10079000B042FBDB30460022002121540B99C1F806
:1007A0000880C1E900200FB0BDE8F08FBD1B6D1CB3
:1007B000DEE74A4600DA694206A800F05DFA06ABB9
:1007C00093E8070003AB83E8070050460A9902F05C
:1007D000FDFA8DE80700A0F500501F38009003983F
:1007E000002D0ADD42F21F014A460844002303A9F6
:1007F0000390684602F066FD09E0A0F500504A4605
:100800001F38002303A90390684602F070FD8DE8AD
:1008100007000004000C03D04FF0FF30410800E057
:100820001046B8F1000F03D00022009215461EE0DA
:10083000751E05D400F09AF9303262556D1EF9D557
:10084000B3460122084302D000227F1C04E0207836
:10085000302801D100227F1E002A099784D01DE094
:10086000112D07DA00F082F9303262556D1C50EA22
:100870000102F5D1084302D00098C8B10EE0002172
:10088000681E05E0235C625C63542254401E491CD0
:100890008142F7DBAB46A81B401E0990002004F8FC
:1008A0000B000B98099AC0F80880C0E9002B7AE782
:1008B00011264FF0000857E72DE9F04F884604460F
:1008C000D21D22F0070191B0D1E90001CDE90A0162
:1008D00002F044FE02460B98C00F01D02D2007E025
:1008E0002068810701D52B2002E0202101EAC00009
:1008F000032A099001D0072A05DB0346414620461A
:1009000000F07AF90BE12078800601D5E06900E07B
:100910000620B8F1650F814606D0B8F1660F18D0F1
:10092000B8F1670F70D131E00020B9F1110F0090DC
:1009300001DB112301E009F101030AAA01A90CA8B6
:10094000FFF7E2FEDDE90C70002609F101058346A0
:1009500047E001204B4600904FF000470AAA01A94A
:100960000CA8FFF7D1FEDDE90DB00C995D4600261D
:1009700010B909F101000D18B9EB050003D4C0F15D
:10098000FF3609F10105A5EB09002BE0B9F1010FD4
:1009900001DA4FF001090020B9F1110F009048462B
:1009A00001DD112300E003460AAA01A90CA8FFF704
:1009B000ABFEDDE90C704D4600268346207800072B
:1009C0000AD4AB4500DA5D4601A8012D04DD4119CA
:1009D00011F8011C302907D04F4502DA17F1040F36
:1009E00004DA012082460FE06D1EEEE7002F02DCE4
:1009F000ED1B3E4403E0781CA84200DD7D1CB81BC3
:100A000000F1010A4FF000472078000703D4AA45FF
:100A100001DB4FF0FF3A0021B7F1004F0DF1430821
:100A20008DF8431024D002202B23002F01DA7F42BF
:100A30002D230A21021EA0F1010000DC5FB197FB0B
:100A4000F1FC97FBF1F201FB1C7C17460CF1300C1A
:100A500008F801CDEEE7A8F101000370218809052F
:100A600001D5452100E06521A0F1010800F8011C35
:100A700009980FA9A1EB0807FF1D00B1012041193A
:100A800001EBEA70A1693844081A401EA061207881
:100A9000C00602D42046FFF7A5FC099828B1D4E986
:100AA00001219047206A401C20622078C00622D590
:100AB0002046FFF797FC1EE0002E04DBB34502DD65
:100AC00001A8805D00E03020D4E901219047206A30
:100AD000401C2062761CAAF101005FEA000A0AD1DC
:100AE00000F040F8C0680168405CD4E901219047FB
:100AF000206A401C2062281EA5F10105DCDC07E00D
:100B0000D4E9012118F8010B9047206A401C2062AB
:100B1000381EA7F10107F3DC2046FFF779FC03201C
:100B200011B041E601694A1C02610878704700B5BE
:100B30008FB0CDE901310021059105497944CDE916
:100B4000031011466846FFF7A1FC0FB000BD00007E
:100B5000E5FFFFFFD1E900239A4202D2531C0B604C
:100B600010707047004870473000002030B5B0F179
:100B70000A0271F100034FEA900E4EEA817EB0EB5B
:100B80000E0061EB91014FEA101E4EEA017E10EB60
:100B90000E0041EB11114FEA102E4EEA016E10EBE0
:100BA0000E0041EB11214FEA104E4EEA014E10EBC0
:100BB0000E0041EB1141401841F100014FEAD00015
:100BC00040EA41704FEAD1014FEA810444EA90744F
:100BD00010EB800544EB01046D1944EB0404521B37
:100BE000A3414FF0000348BF0A3200D530BD401C7E
:100BF00041F1000130BD00002DE9F0411F460446DF
:100C000003260168072A01F4006004DB08B116A579
:100C100005E016A503E008B115A500E015A521F033
:100C200010002060A069C01EA0610FB1401EA0612D
:100C30002046FFF7D7FB4FB1D4E901213846904752
:100C4000206A401C2062C01C206206E0206AFAE78D
:100C5000D4E9012115F8010B9047761EF8D2204601
:100C6000FFF7D6FBBDE8F0814E414E006E616E008D
:100C7000494E4600696E66002DE9F04781461646EA
:100C80008AB0354878440DC88DE80D003248784464
:100C9000801C03AC0DC884E80D0041F69B3008446D
:100CA000372190FBF1F290FBF1F5A5F1800501FBF6
:100CB00012041B3C02D56442012000E00020DFF852
:100CC00098A080460027FA44AAF1BE0A0EE0E00789
:100CD0000AD03246684607EB470101230AEB81013F
:100CE00002F005FB8DE8070064107F1C002CEED19C
:100CF000194F7F44AE3F19E0E80715D007EB041009
:100D00000DF1180A90E80E008AE80E00C068F04263
:100D100001D1981908903246012306A903A802F0D0
:100D2000E6FA03AB83E807006D10641C002DE3D1E5
:100D30004FF0010332466946B8F1000F03A802D014
:100D400002F0C0FA01E002F0D2FAC9E90001C9F8E4
:100D500008200AB0BDE8F087042B00000048704767
:100D6000100000207546FFF7F9FFAE460500694602
:100D7000534620F00700854618B020B5FFF788FAE3
:100D8000BDE820404FF000064FF000074FF000088C
:100D90004FF0000BAC46ACE8C009ACE8C009ACE8C9
:100DA000C009ACE8C00921F007018D46704710B5B5
:100DB0000446AFF300802046BDE81040FFF753BA69
:100DC00030B44FF0013C50F8042B51F8043BCCFAFE
:100DD00052F4D51A20D1FCB950F8042B51F8043B39
:100DE000CCFA52F4D51A17D1B4B950F8042B51F8F3
:100DF000043BCCFA52F4D51A0ED16CB950F8042B3E
:100E000051F8043BCCFA52F4D51A05D1002CDAD0B3
:100E100030BC4FF00000704729BAB1FA81F111F0EF
:100E20001801D1F120008440F2D1CA40CB4012F029
:100E3000FF0213F0FF0330BCD01A7047014918209D
:100E4000ABBEFEE72600020070470000FEE7000090
:100E50007047000090F83510022909D1052180F86B
:100E600035100068016821F0010101600020704721
:100E70008021416501207047B0B5044600F0E6F8D6
:100E8000054640F20000C2F200000078611C18BF65
:100E9000044400BF00F0DAF8401BA042FAD3B0BD12
:100EA0002DE9F04F83B000F1200200F13E4741F6FA
:100EB0000045009207F1FF77C4F2020508224FEACD
:100EC000B726A84208BF072200254FF000084FF0C0
:100ED0000009072E38BF4FEAB72201920AE000BF8F
:100EE00009F1010908F10208B9F1100F05F1040533
:100EF00000F0A2800F68012202FA09FE17EA0E0A2A
:100F0000EED0D1F804C003220CF003077E1E02FAD3
:100F100008F4012E6FEA040B12D88468CE6804EA44
:100F20000B0406FA08F634438460446824EA0E068B
:100F3000CCF3001404FA09F42643466004E000BF31
:100F4000032F01D103271EE0C6688C6806EA0B0652
:100F500004FA08F42643022FC66014D16FF003028E
:100F6000009E02EA590756F807C005F01C040F223C
:100F70000B69A2402CEA0202A3401A43F251D1F8B5
:100F800004C00CF00307026807FA08F302EA0B0238
:100F90001A431CF4403F0260A2D0002243F64403EF
:100FA0000292C4F202031A6843F6004442F48042FB
:100FB0001A601A68C4F2010402F480420292029A92
:100FC00029F003024FF6084C2244CFF6FF7C52F87A
:100FD0000C3005F00C070F26BE40B343019E06FA05
:100FE00007F73B4342F80C30A2684B6842EA0A0715
:100FF00043F60C4CDE0258BF22EA0A07A760C4F28F
:10100000010CDCF800209E0242EA0A0758BF22EADF
:101010000A07CCF8007062689E0342EA0A0758BFCC
:1010200022EA0A0767602268DB0342EA0A0758BF20
:1010300022EA0A07276053E703B0BDE8F08F0000FB
:10104000002A08BF090481617047000040F228109F
:10105000C2F200000068704740F2000040F2281120
:10106000C2F20000C2F2000100780A681044086071
:101070007047000080B543F60040C4F202000168EA
:1010800041F400710160016841F480610160016810
:1010900041F480710160032000F086F80F2000F019
:1010A00005F800F027F8002080BD000070B540F280
:1010B0000006C2F2000640F208013278C2F20001D6
:1010C0004FF47A730968B3FBF2F20446B1FBF2F114
:1010D000084601F031F80F2C4FF0010508D838B957
:1010E0004FF0FF3021460022002500F031F87460F7
:1010F000284670BD82B0002043F640010190C4F242
:1011000002014A6842F480424A604A6802F480421E
:101110000192019A0090086840F0805008600868C9
:1011200000F080500090009802B07047002848BF3F
:10113000704700F01F01012202FA01F11C2202EAAD
:10114000D0004EF20012CEF2000281507047000033
:1011500010B54EF60C5CCEF2000CDCF80030C3F398
:10116000022E8EF00704042C28BF0424BEF10303D2
:101170004FF0FF3E0EFA04F438BF0023A14399401C
:101180000EFA03F39A43114300F00F0200F160439B
:101190000901043A03F564436244002848BF02F1A0
:1011A0000C03197010BD00004EF60C51CEF2000178
:1011B0000A684FF6FF031A4060F30A2242F080608B
:1011C00040F0FD7008607047002804BF01207047A0
:1011D0002DE9F04143F60808C4F202080446D8F8A5
:1011E000F8030D4600F00700814207D988F8F8534C
:1011F000D8F8F80300F00700A84277D120688107EB
:1012000017D5410705D5D8F8001041F4E051C8F8CA
:101210000010010705D5D8F8001041F46041C8F866
:101220000010D8F80010A26821F0F0011143C8F8AE
:101230000010C00740D1D8F8F80300F0070085423D
:1012400007D288F8F853D8F8F80300F00700A8424E
:101250004CD12068410707D5D8F80010E26821F486
:10126000E0511143C8F80010000708D5D8F8000075
:10127000216920F4604040EAC100C8F8000000F095
:101280007DF8D8F8001043F2A472C1F30311C0F640
:101290000002515C40F2080220FA01F140F2040021
:1012A000C2F200000068C2F200021160FFF7FEFE09
:1012B0000020BDE8F08100BF6068811E022907D2CE
:1012C00058F8081C89015CBF0120BDE8F08111E0DD
:1012D000012807D158F8081C89035CBF0120BDE82C
:1012E000F08107E058F8081C890703D40120BDE805
:1012F000F08100BFD8F8001021F003010843C8F8BE
:101300000000FFF7A3FE064641F28837D8F8000038
:10131000616800F00C00B0EB810F8CD0FFF796FEF7
:10132000801BB842F2D90320BDE8F08140F20800EA
:1013300043F60801C2F20000C4F202010068096825
:1013400043F2B472C1F38221C0F60002515CC8407E
:101350007047000040F2080043F60801C2F20000A6
:10136000C4F202010068096843F2B472C1F3423169
:10137000C0F60002515CC8407047000010B543F64B
:101380000404C4F202046168C1F3810142F2004026
:10139000C0F2F400DFE801F002040A0210BD00BF51
:1013A00047F64000C0F27D1010BD00BF20682168E4
:1013B0002368490247F64001C0F27D1100F03F0268
:1013C000C3F388105CBF42F20041C0F2F401A1FBFC
:1013D00000010023FEF76EFF21680222C1F30141E4
:1013E00002EB4101B0FBF1F010BD0000002804BF8A
:1013F000012070472DE9F04182B00446007843F6A1
:101400000006C007C4F202060CD0B06800F00C0061
:10141000042840F081803068800303D5606800288C
:1014200000F06881207880071BD5B06810F00C0FA1
:1014300009D0B06800F00C00082840F08780706880
:10144000400200F183803068800703D5E0680128FE
:1014500040F050813068216920F0F80040EAC10076
:1014600030602078000713D4207840072AD4A5697B
:10147000002D00F03A81B06800F00C00082840F020
:10148000A580012D40F00E81012002B0BDE8F08161
:101490006069002800F082800020C4F2472001210A
:1014A000C0F8801EFFF7D2FD054600BF706F8007B1
:1014B000DAD4FFF7CBFD401B0228F7D9032002B096
:1014C000BDE8F081306C5FEAC0080AD400200190CA
:1014D000306C40F080503064306C00F080500190EF
:1014E000019847F20007C4F200073868C00547D4E6
:1014F000386840F480703860FFF7A8FD054600BFEB
:101500003868C0053CD4FFF7A1FD401B0228F7D97D
:10151000032002B0BDE8F081B06800F00C0008289C
:1015200003D1706840023FF576AF61683068B1F56D
:10153000803F07D0B1F5A02F40F09A8040F4802082
:101540003060306840F4803030609AE0E068002815
:1015500040F20000C4F247205CD001210160FFF797
:1015600075FD0546306880073FF574AFFFF76EFDE7
:10157000401B0228F6D9032002B0BDE8F08100BF6D
:10158000A168306F012905D0052955D140F004002C
:101590003067306F40F00100306756E00020C4F241
:1015A00047200021C0F8801EFFF750FD054600BF10
:1015B000706F80077FF558AFFFF748FD401B02288A
:1015C000F6D9032002B0BDE8F08100BF0027C4F2C5
:1015D000472700203866FFF739FD022D05460DD15B
:1015E0003068800140F18A80FFF730FD401B0228FF
:1015F0004FF00300F4D902B0BDE8F08130688001FB
:1016000073D5FFF723FD401B02284FF00300F5D9E7
:10161000F1E700BF00210160FFF718FD054600BF9C
:10162000306880077FF51DAFFFF710FD401B0228D3
:101630004FF00300F4D9DEE720F001003067306F8F
:10164000002920F0040030677AD0FFF7FFFC054640
:1016500041F28837306F800700F18480FFF7F6FC95
:10166000401BB842F6D9032002B0BDE8F08100BFAC
:1016700020F4803030603068002920F48020306011
:101680007AD0FFF7E3FC0546306880033FF5CAAE29
:10169000FFF7DCFC401B6428F6D9032002B0BDE84C
:1016A000F08100BF7068E16900F480028A4221D1B4
:1016B000216A00F03F028A421CD147F6C071626A7B
:1016C0000140B1EB821F15D1A16A4FF6FF73C90328
:1016D000994300F44032A1F580318A420AD1E16A8F
:1016E00000F07060B0EB016F04D1002002B0BDE8E3
:1016F000F08100BF012002B0BDE8F08104F11C05BB
:101700002FCD084340EA8210D9034FF6FF72914370
:10171000A1F5803140EA0560084370600120386619
:10172000FFF794FC044600BF30688001DDD4FFF76A
:101730008DFC001B02284FF00300F5D95BE700BFCA
:10174000FFF784FC054641F2883700BF306F800701
:1017500008D5FFF77BFC401BB8424FF00300F5D9DA
:1017600049E700BFB8F1000F3FF581AE306C20F0C3
:10177000805030647BE600BFFFF768FC054600BF81
:10178000306880037FF54EAEFFF760FC401B642895
:101790004FF00300F4D92EE7016843F60000C4F2CD
:1017A0000000814218BF704780B500F5EC30082179
:1017B0000122FFF745FC40F27000C2F20000002158
:1017C000C1710170BDE8804070470000B0B582B0C3
:1017D00001684A688B6803F04105012D08D112F0B9
:1017E000400505D0016C02B0BDE8B040084700BF1D
:1017F0009D0707D512F0800504D0416C02B0BDE80A
:10180000B040084713F4B07F18BF12F0200501D193
:1018100002B0B0BD5D0618D590F85150032D09D126
:1018200000200190C868019088680190019802B07A
:10183000B0BD00BF456D45F0040545650025019527
:10184000CD6801958D680195019D9D0604D4DB0549
:1018500011D4436DDBB9DBE7456D45F00105456506
:10186000002501958D6801950D6825F040050D60F6
:10187000019DDB05EDD5436D43F00803436500236F
:1018800001938B680193019B436D002BC0D04B6883
:10189000920723F0E0034B604FF0010380F85130D2
:1018A00026D04A6842F2696422F003024A60C16CA1
:1018B000C0F6000459B1054608460C65FFF7CAFAA0
:1018C0000146284619B1416D41F040014165816CE6
:1018D00000299DD00C6504460846FFF7BBFA002896
:1018E00096D0606D40F04000606502B0B0BD00BFB2
:1018F00002B0BDE8B040FFF74FBF000070B528B19F
:10190000416A29B100210161142106E0012070BD66
:101910004168B1F5827F02D01C210022425000268E
:10192000866290F8511029B980F85060054600F0A1
:101930003DF82846022180F8511090E82E0002F46C
:1019400082720C6803F4044324F040040C601A44CF
:1019500005F4006305691A4405F0020345691A4459
:1019600005F001038569C4691A4405F400731A443B
:1019700004F03803046A1A4404F08003846A1A43AA
:1019800004F400531A430A60436A042202EA15422F
:1019900003F010031A444A60CA6922F40062CA6163
:1019A0000121466580F85110304670BD2DE9F043A5
:1019B00087B043F600050068C4F200050026A8427F
:1019C0000696CDE904660396029603D007B0BDE8FB
:1019D000F08300BF43F630000196C4F202000169B3
:1019E00002AC41F48041016101694FF0020801F449
:1019F000804101910199019601684FF0030941F07E
:101A0000040101600168052701F0040101910199B9
:101A10000196016841F0020101600068214600F072
:101A20000200019001980C20029005F5E830CDE904
:101A30000386CDF814900697FFF732FA4FF48060D2
:101A4000CDE9020805F5E6302146CDE9046906979F
:101A5000FFF726FA242000210022FFF779FB24203B
:101A6000FFF764FB07B0BDE8F0830000704700009B
:101A70002DE9F04184B01D4616460F460446FFF797
:101A8000E5FA94F8511001290ED18046002F4FF04D
:101A9000010018BF002E03D104B0BDE8F08100BFE3
:101AA00094F85000012803D1022004B0BDE8F08171
:101AB000012084F850000320002184F85100616562
:101AC0002763A686E686A163A187E187A0682164D3
:101AD000B0F5004F2068616407D1016821F0400132
:101AE0000160016841F4804101600168490603D446
:101AF000016841F0400101606168731EE268B1FA5B
:101B000081F1B3FA83F349095B09B2F5006F41EA49
:101B1000030139D131B137F8021BC1602763E08E70
:101B20000138E086E08E002870D0681C0BD11AE0E6
:101B3000216B31F8022BC2602163E08E0138E08610
:101B4000E08E002862D0206881688907F0D4FFF712
:101B50007DFAA0EB0800A842F2D338E0FFF776FA4E
:101B6000E08E002852D0206881688907F6D5216B65
:101B700031F8022BC2602163E08E0138E086E08EEE
:101B80000028F0D142E000BF39B139780173206BF1
:101B900001302063E08E0138E086E08EB0B3681C2F
:101BA0000BD123E0216B09780173206B0130206396
:101BB000E08E0138E086E08E40B3206881688907B6
:101BC000F0D4FFF743FAA0EB0800A842F3D30120BA
:101BD00084F85100002084F85000032004B0BDE8D0
:101BE000F08100BFFFF732FAE08E78B1206881689B
:101BF0008907F7D5216B09780173206B01302063C9
:101C0000E08E0138E086E08E0028EFD120460221E8
:101C100001222B46CDF8008000F02CFDE0B1606D74
:101C200040F02000606520206065A06838B9002081
:101C300002902068C1680291806802900298012099
:101C400084F85100002084F85000606D002818BF0F
:101C5000012004B0BDE8F08140F20800C2F20000AB
:101C6000006849F68171C1F25E61A0FB0101480D77
:101C70004FF47A71484303906068B0F5827F0BD1CE
:101C80002046802100222B46CDF8008000F0F2FC97
:101C90000028C4D1C9E700BF03980028C5D0039825
:101CA00001380390206881680906BED50399002990
:101CB000BBD003990139039181680906B5D5039911
:101CC0000029B2D003990139039181680906ACD586
:101CD00003990029A9D0039901390391806800066E
:101CE000DAD4A2E72DE9F04383B01E4615460F462D
:101CF0000446FFF7ABF994F851108146012909D148
:101D0000002F4FF0010018BF002D0FD103B0BDE828
:101D1000F08300BF6068B0F5827F0DD104294FF0D9
:101D20000200F3D1A1680029EAD0EFE7002EEDD040
:101D300094F85000012803D1022003B0BDE8F083DD
:101D4000012084F8500094F85100002104281CBFA1
:101D5000052084F851006165A563E687A68727639F
:101D6000E6862068A686216461640168490603D47A
:101D7000016841F0400101606168731EE268B1FAD8
:101D800081F1B3FA83F3DDF8288049095B09B2F5E4
:101D9000006F41EA030165D131B137F8021BC16020
:101DA0002763E08E0138E086012518F1010032D169
:101DB00002E000BFFFF74AF9E08E18B9E08F002873
:101DC00000F0B8802068816889070CD5E18E51B198
:101DD000012D08D1216B002531F8022BC26021634F
:101DE000E18E0139E1868168C907E3D0E18F0029DE
:101DF000E0D0C068A16B012521F8020BA163E08F40
:101E00000138E087D6E700BFFFF720F9A0EB090013
:101E1000404580F0A580E08E18B9E08F002800F0E2
:101E200089802068816889070CD5E18E51B1012D28
:101E300008D1216B002531F8022BC2602163E18EAD
:101E40000139E1868168C907DED0E18F0029DBD046
:101E5000C068A16B012521F8020BA163E08F013856
:101E6000E087D1E739B139780173206B0130206305
:101E7000E08E0138E086012518F1010032D101E041
:101E8000FFF7E4F8E08E10B9E08F002852D0206808
:101E9000816889070ED5E18E61B1012D0AD1216BD0
:101EA000002509780173216B206801312163E18EDF
:101EB0000139E1868168C907E2D0E18F0029DFD0CE
:101EC000C068A16B01250870A06B0130A063E08F92
:101ED0000138E087D4E700BFFFF7B8F8A0EB0900AE
:101EE00040453DD2E08E08B9E08F18B32068816884
:101EF00089070ED5E18E61B1012D0AD1216B002534
:101F000009780173216B206801312163E18E013969
:101F1000E1868168C907DFD0E18F0029DCD0C06885
:101F2000A16B01250870A06B0130A063E08F013820
:101F3000E087D1E72046022101224346CDF80090F8
:101F400000F098FBB0B1606D40F02000606520208B
:101F50006065002084F85000012003B0BDE8F083E4
:101F6000012084F85100002084F85000032003B0C1
:101F7000BDE8F08340F20800C2F20000006849F6B4
:101F80008171C1F25E61A0FB0101480D4FF47A71CD
:101F9000484302906068B0F5827F0BD120468021D3
:101FA00000224346CDF8009000F064FB0028CAD11F
:101FB00021E000BF0298F0B1029801380290206839
:101FC0008168090617D50299A9B1029901390291D0
:101FD000816809060FD5029969B102990139029108
:101FE0008168090607D5029929B102990139029140
:101FF00080680006DED4A06838B90020019020680F
:10200000C1680191806801900198012084F8510015
:10201000002084F85000606D002818BF012003B034
:10202000BDE8F08380B590F851C0BCF1010F07D135
:1020300000294FF0010C18BF002A11D1604680BD65
:10204000D0F804E0BEF5827F11D1BCF1040F4FF04F
:10205000020CF3D1D0F808E0BEF1000FE8D0EDE7B4
:10206000002BEBD090F850C0BCF1010F02D1022040
:1020700080BD00BF4FF0010C80F850C090F851C0F7
:1020800042F2554EBCF1040F1CBF4FF0050C80F816
:1020900051C04FF0000CC0F854C001638386C38662
:1020A00082638387C387C26842F22543C0F6000E6D
:1020B000C0F60003002A42F28942016808BF734655
:1020C00042F2B94EC0F60002C0F6000E08BF7246DA
:1020D000C0E910320A68520603D40A6842F040028E
:1020E0000A6080F850C0486840F0E00048606046F0
:1020F00080BD0000016843F60000C4F20000814288
:1021000018BF704710B500F5EC30082101220124FA
:10211000FEF796FF40F27000C2F20000B0F809101E
:10212000D0F80B20A0F801100021C0F80320C171E5
:102130000470BDE810407047411E0020B0EB116FE5
:102140001CBF012070474EF21002CEF20002516017
:102150004EF62351CEF20001F0230B700721906060
:1021600011607047002804BF0120704710B5044675
:1021700090F8410028B9002084F84000204600F083
:1021800021F8242084F841002068C16821F400511E
:10219000C160204600F00EFB2068016921F49041E7
:1021A0000161416921F02A014161C16841F4005196
:1021B000C16000202021606484F8411084F842103E
:1021C000606310BD2DE9F04387B045F2000500685B
:1021D000C4F200050026A8420696CDE904660396DF
:1021E000029603D007B0BDE8F08300BF43F630008D
:1021F0000196C4F20200016902AC41F48011016150
:1022000001694FF0020801F48011019101990196D2
:1022100001684FF0030941F00401016001680827DB
:1022200001F00401019101990196016841F0080152
:1022300001600068214600F00800019001984FF409
:102240008050029005F5DC30CDE90386CDF814907E
:102250000697FEF725FE0420CDE9020805F5DE30DD
:102260002146CDE904690697FEF71AFE07B0BDE8DE
:10227000F08300002DE9F04381B0044690F841005E
:10228000202809D100294FF0010018BF002A07D1EA
:1022900001B0BDE8F08300BF022001B0BDE8F083CB
:1022A0000020606421201D460E4684F84100174638
:1022B000FEF7CCFEA784E784A1688146B1F5805F74
:1022C00002D1206900285DD037460020E28C2168C9
:1022D000002A5DD06A1C24D0002D4AD0804600BF61
:1022E0000868000608D4FEF7B1FEA0EB0900A8427A
:1022F0007AD82168C868F3E717B117F8010B04E032
:1023000038F8020B00276FF35F204860E08C01383B
:10231000E084E08C0028E3D13AE000BF0A681206AE
:1023200009D40A68120606D40A6812065CBF0A6855
:102330005FEA0262F2D51FB117F8012B05E000BF7A
:1023400030F8022B00276FF35F224A60E28C013ADB
:10235000E284E28C002AE4D11AE000BF30F8022BBC
:1023600000276FF35F224A60E28C013AE284E28C3C
:1023700072B10A68120635D5002FEFD017F8012B7D
:10238000F1E700BF00273046E28C2168002AA1D186
:10239000086840061ED42DB3681C14D10868400696
:1023A0002AD40868400627D40868400624D4086860
:1023B00040064FF00000F1D50DE000BF2068C16875
:1023C0000068400618D4FEF741FEA0EB0900A842C1
:1023D000F4D909E00020202184F8411001B0BDE8C3
:1023E000F08300BFFEF732FE0320202184F8411065
:1023F00001B0BDE8F08300BF0020202184F8411027
:1024000001B0BDE8F0830000FEE70000FEE7000039
:10241000FEE700007047000040F2D000C2F200006A
:10242000FFF7D4B90168826BCB6822F8023B826364
:10243000C28F013AC287C28F002A18BF70474A680C
:1024400022F040024A60C18E002908BF00F04EB859
:10245000704700000168097B826B1170816B01314C
:102460008163C18F0139C187C18F002918BF7047AF
:1024700001684A6822F060024A60C18E002908BFE4
:1024800000F034B870470000026B016832F8023B7C
:10249000CB600263C28E013AC286C28E002A18BF88
:1024A00070474A6822F080024A60C18F002908BF45
:1024B00000F01CB870470000016B026809781173C6
:1024C000016B01310163C18E0139C186C18E0029C2
:1024D00018BF704701684A6822F080024A60C18FC5
:1024E000002908BF00F002B87047000070B584B042
:1024F00040F20806C2F20006316841F6F112C0F25D
:102500007652A1FB02120446500A6421484302900D
:10251000FEF79CFD216805464A6822F020004860CD
:102520000298F8B1029801380290886880071DD49B
:102530000298B8B10298013802908868800715D4D3
:10254000029878B1029801380290886880070DD40B
:10255000029838B102980138029088688007DFD568
:1025600004E000BF606D40F020006065204602215D
:1025700001226423009500F07DF8B8B1606D40F051
:1025800020006065606D40F020006065A068002854
:102590004CD0606D002854D00121204684F85110A1
:1025A00004B0BDE87040FFF7F7B800BF306849F6E7
:1025B0008171C1F25E61A0FB0101480D4FF47A7197
:1025C000484303906068B0F5827F09D1204680219E
:1025D00000226423009500F04DF80028CED1D5E705
:1025E00003980028D2D003980138039020688168AE
:1025F0000906CBD503990029C8D003990139039165
:1026000081680906C2D503990029BFD00399013911
:10261000039181680906B9D503990029B6D00399B9
:102620000139039180680006DAD4AFE700200190F9
:102630002068C1680191806801900198606D002850
:10264000AAD194F8510001210428204684F85110A1
:1026500004D104B0BDE87040FFF708BA04B0BDE88B
:102660007040FFF747BD0000806B0021C187C18625
:10267000FFF792B82DE9F04381B0089C98461546C3
:102680000E468146FEF7E2FC201A00EB0804FEF736
:10269000DDFC40F20801C2F200010968C1F3CB3150
:1026A00061430091D9F800108A683240921BB2FA57
:1026B00082F25209954203D1002001B0BDE8F083B7
:1026C000074618F101000ED130E000BF0098013834
:1026D0000090D9F8000080683040801BB0FA80F08C
:1026E00040098542E8D0FEF7B1FCC01BA04227D2CA
:1026F00000980028EAD10024EBE700BF886830404A
:10270000801BB0FA80F040098542D5D088683040FF
:10271000801BB0FA80F040098542CDD088683040F7
:10272000801BB0FA80F040098542C5D088683040EF
:10273000801BB0FA80F040098542DFD1BCE700BFC2
:10274000D9E900014268B1F5827F22F0E0024260DF
:102750000BD1D9F80810B1F5004F02D0B1F5806F58
:1027600003D1016821F040010160D9F82810B1F5CA
:10277000005F07D1016821F400510160016841F454
:1027800000510160012089F85100002089F85000B3
:10279000032001B0BDE8F08370470000FEF75CBC89
:1027A0004EF68850CEF20000016841F470010160DD
:1027B00070470000B0B50446006804F108030ECB72
:1027C0000569194325F440552A4302616269E369AA
:1027D0001143C268194349F20C639A431143C16023
:1027E0004169A26921F4407141F20043114340F470
:1027F0008062C4F201039A42416103D1FEF7AAFD4F
:1028000002E000BFFEF792FDE1694FF69C75636838
:102810001922C0F6FF75B1F5004FA0FB02011FD1D0
:102820005A00DB0FFDF746FD48F21F51C5F2EB11D0
:10283000A0FB01235A0905F1805302FB0300322358
:1028400003EBC000A0FB01014FF4F87000EA111087
:1028500000EB0210C1F34211084421688860B0BD4A
:102860009A009B0FFDF726FD48F21F51C5F2EB11B0
:10287000A0FB01235A0902FB0500322303EB0010E1
:10288000A0FB0101F02000EA511000EB0210C1F39F
:102890004311084421688860B0BD0000FEE70000D5
:1028A000ACB043F6300541F20009C4F20205C4F2AF
:1028B0000209FEF7DFFB06AC20463021FDF7A1FE42
:1028C00000262B96CDE92966CDE92766269628694C
:1028D00040F080502861286900F0805026902698AA
:1028E00046F200002696CFF6FE7059F8001041F42B
:1028F000804149F8001059F8000000F4804026900B
:102900002698022006900120099010200A90204667
:102910000C96FEF76BFD18B172B600BFFEE700BF64
:102920000F20CDE9270627A80021CDE929662B969F
:10293000FEF74AFC10B172B6FEE700BF00240A940D
:10294000CDE90844CDE9064427942868082140F0E1
:10295000100028602868002200F0100027902798B7
:1029600027942868082640F004002860286800F0B2
:102970000400279027982794286840F002002860D8
:10298000286800F00200279027982794286840F0D4
:1029900001002860286800F00100279027982794FC
:1029A000286840F008002860286843F6000500F019
:1029B0000800279027984846C4F20005FEF740FB20
:1029C0000696012606A94846CDE907640994FEF754
:1029D00067FA40F2D000C2F200004FF48271022286
:1029E0004FF40073C0E900510A21C0E90244C0E974
:1029F0000426C0E90634C0E90844C0E90A41FEF7EC
:102A00007DFF18B172B600BFFEE700BF40F2700A4A
:102A1000C2F2000A05F5C051504640F8181F4FF4A5
:102A2000E1310C22C0E90114C0E90344C0E90524E6
:102A3000C461FFF797FB18B172B600BFFEE700BF95
:102A4000484608210122FEF7FBFA64206424FEF7C1
:102A500013FAF520ADF81800484608210022FEF7C9
:102A6000EFFA40F2D000C2F2000006A927AA022322
:102A70000094FFF737F90446484608210122FEF783
:102A8000DFFA2CB10AF11800AAA117221DE000BF3D
:102A90009DF89D5006AEADA2304680212B46FDF735
:102AA00081FC3046FDF78EFD0AF1180482B2204603
:102AB00031466423FFF7DEFB702D03D1B0A1204621
:102AC000132202E0A6A120461D226423FFF7D2FBB9
:102AD0006B20ADF89C00484608210022FEF7B0FAB2
:102AE00040F2D000C2F2000027A902226423FEF7C0
:102AF000BFFF0446484608210122FEF7A1FA0AF169
:102B000018001CB1A3A11A2205E000BF43F68501FD
:102B1000C0F600011B226423FFF7ACFB6420642491
:102B2000FEF7AAF9EB20ADF89C00484608210022E8
:102B3000FEF786FA40F2D000C2F2000027A926AACA
:102B400002230094FFF7CEF80446484608210122EC
:102B5000FEF776FA44B143F2BC710AF11800C0F6F0
:102B600000011B2210E000BF9DF8993006AC90A236
:102B700020468021FDF716FC2046FDF723FD0AF1D3
:102B8000180182B2084621466423FFF773FB0AF15D
:102B9000180543F2D871C0F6000128462E2264239E
:102BA000FFF768FB9AF8070030BBBB20544604F8D7
:102BB0000F0F00260120CAF81060AAF814608AF8E6
:102BC00007004846082100228AF80060FEF738FA1C
:102BD00040F2D0000AF10802C2F2000021460723A9
:102BE000FFF720FA002800F09D80484608210122C6
:102BF000FEF726FA8AF8076043F63201C0F60001B4
:102C0000284628226423FFF735FB9FED6F8A43F6A1
:102C1000A1064FF00008C0F6000606AF0AF1080B47
:102C20009AF800000028FBD08AF80080BAF801006A
:102C3000BAF80310C0BABAF80520C9BA00EE100AF3
:102C400001EE101AD2BAB8EEC00AB8EEC11A20EEE0
:102C5000080A21EE089A01EE102AB8EEC11A10EE09
:102C6000100A21EE08AA00F0B5FC41EC1B0B19EE8E
:102C7000100A00F0AFFC41EC190B1AEE100A00F03C
:102C8000A9FC41EC100B3846802132468DED00BB8B
:102C90008DED029B8DED040BFDF784FB3846FDF7AF
:102CA00091FC82B2284639466423FFF7E3FA4FF4D9
:102CB000FA70FEF7E1F89AF807000028B0D1544600
:102CC000BB2004F80F0F0120CAF81080AAF8148066
:102CD0008AF807004846082100228AF80080FEF79B
:102CE000AFF940F2D000C2F2000021465A46072355
:102CF000FFF798F9002893D004464846082101229E
:102D0000FEF79EF914F0FD0F8AF8078088D043F68D
:102D100007012846C0F600012A226423FFF7AAFA19
:102D20007EE700BF43F65B01C0F60001284629227A
:102D300068E700BF526561642057484F5F414D5FAF
:102D400049206661696C65642E0D0A0057484F5F23
:102D5000414D5F49203D203078253032580D0A0022
:102D600057484F5F414D5F492076616C756520691A
:102D700073206E6F7420307837302E0D0A000000FB
:102D80004D50553635303020646574656374656424
:102D90002E0D0A005772697465205057525F4D47D7
:102DA0004D545F31206661696C65642E0D0A000028
:102DB0005057525F4D474D545F31203D20307825AC
:102DC0003032580D0A0D0A00000080385FEA400CCE
:102DD00008BF91F0000F4FEA8C234FEAC12243EA6B
:102DE00051514FEA1C5018BF00F5F0404FEA300037
:102DF00018BF41F000415FEA6C5C00F02980BCF133
:102E0000FF3F08BF40F080407047130C06BF12041C
:102E10004FF0100C4FF0000C130E04BF12020CF117
:102E2000080C130F04BF12010CF1040C930F04BF24
:102E300092000CF1020CD30F04BF52000CF1010CF4
:102E400011464FF00002A0F11F00A0EB0C007047EC
:102E500011F0004F08BF704731F000413FF4D5AF8B
:102E60000B0C06BF09044FF0100C4FF0000C0B0EBA
:102E700004BF09020CF1080C0B0F04BF09010CF18F
:102E8000040C8B0F04BF89000CF1020CCB0F04BFA4
:102E900049000CF1010CCCF1200322FA03F341EAC2
:102EA000030102FA0CF2A0EB0C0000F101007047E4
:102EB00023F07F4720F07F4C80EA030000F00040C1
:102EC000ACEB070303F57C5303F1FF032DE98049C5
:102ED00009B44FEA144324EA03484FEA154B25EAA4
:102EE0000B4E0FF2042606EB13273E7803FB066712
:102EF000C7F5000707FB06F64FEAD64606F10206BD
:102F00004FEA543707FB066CCCF1005C4FEA1C47D4
:102F10002CEA074C0CFB06F507FB06F404EB154600
:102F20004FEA961649085FEA320234BF00204FF09C
:102F300000404FEAD13706FB07FC4FEA1C4C0CFB64
:102F40000BF7D21B03FB0CF761EB07010CFB0EF731
:102F5000B0EB074072EB17420CFB08F734BFA2EB53
:102F60000742B2EB074261EB17414FEA0C444FEACC
:102F7000910706FB07FC4FEA1C4C0CFB0BF7B0EB70
:102F8000C74072EB573203FB0CF734BFA2EBC742CA
:102F9000B2EBC74261EB57310CFB0EF7B0EBC70049
:102FA00072EB57720CFB08F734BFA2EBC702B2EB0F
:102FB000C70261EB57714FEA816141EA92114FEA12
:102FC000826242EA90124FEA806004EBCC04039FD5
:102FD0004FEAD13706FB07FC4FEA1C4C0CFB0BF702
:102FE000D21B03FB0CF761EB07010CFB0EF7B0EBF8
:102FF000074072EB17420CFB08F734BFA2EB074205
:10300000B2EB074261EB17414FEA8C5504EB9C246D
:103010004FEA910706FB07FC4FEA1C4C0CFB0BF731
:10302000B0EBC74072EB573203FB0CF734BFA2EB97
:10303000C742B2EBC74261EB57310CFB0EF7B0EB66
:10304000C70072EB57720CFB08F734BFA2EBC70244
:10305000B2EBC70261EB57714FEA816141EA92110D
:103060004FEA826242EA90124FEA806015EB4C25EB
:1030700044F100044FEAD13706FB07FC4FEA1C4C31
:103080000CFB0BF7D21B03FB0CF761EB07010CFBEE
:103090000EF7B0EB074072EB17420CFB08F734BF9A
:1030A000A2EB0742B2EB074261EB17414FEA8131D5
:1030B00041EA92414FEA823242EA90424FEA80303E
:1030C0004FEA0C7615EB1C1544F1000448EA034363
:1030D0004EEA0B484FF0000EB2EB080C71EB030701
:1030E00024BF624639464EEB0E0E4FF0000B00181F
:1030F000524149414BEB0B0BB2EB080C71EB030750
:103100007BF1000B24BF624639464EEB0E0E4FF0AA
:10311000000B0018524149414BEB0B0BB2EB080C72
:1031200071EB03077BF1000B24BF624639464EEB7F
:103130000E0E51EA020718BF46F0010616EB0E7696
:1031400055F1000254F1000103D5BDE88901BDE845
:103150000088BDE88901BDE80048B619524141EB3D
:103160000101A3F10103704780807F7E7D7C7B7A23
:103170007978777676757473727171706F6E6E6D23
:103180006C6C6B6A6A6968686766666564646363C9
:1031900062616160605F5F5E5E5D5D5C5C5B5B5A4F
:1031A0005A595958585757565655555554545353BC
:1031B00052525251515050504F4F4F4E4E4D4D4D17
:1031C0004C4C4C4B4B4B4A4A4A4949494848484762
:1031D00047474746464645454544444444434343A0
:1031E00043424242424141419C46002B30D4770049
:1031F0002BD04FEA37071CB503B44FF010004FF047
:103200001001BAF1000F06D0BCF1000FDCBF40F096
:10321000080040F008014FF000000FBCBDE810406E
:103220000BF1010BBBF1010F08BF5FEA170722BFCB
:1032300012F1010211F101014FF0004143F10003CD
:1032400000F0004043EA00007047F9D35708D0E788
:1032500046EA06464FEA164613F1400F1FDD13F10A
:10326000200FDFBF16430A46002120335B42BED049
:10327000C3F1200746EA06464FEA164602FA07F768
:1032800046EA070622FA03F2C3F1200701FA07F71C
:1032900042EA070221FA03F14FF00003A7E746EAEA
:1032A000020646EA06464FEA164646EA0106BCBF53
:1032B00046EA0646360C4FF000034FF000024FF08E
:1032C000000194E72DE9804C70B49A46934691E84A
:1032D000380007C831EA400C48BF34EA430C03D534
:1032E000FFF7E6FDFFF780FFF0BCBDE8008C2DE99D
:1032F000804C70B49A46934691E8380007C810F0A5
:10330000804F08BF13F0804F03D100F005F8FFF79E
:103310006BFFF0BCBDE8008C20F07F4723F07F4CB2
:1033200080EA030000F0004007EB0C03A3F57C5398
:10333000A3F1FE0392F0000F00F0B38095F0000FB0
:1033400000F077802DE901494FEA114021EA004859
:103350004FEA144624EA064700FB06FC08FB06F683
:1033600007FB08F818EB06484CEB164C00FB07F778
:1033700018EB07484CEB17404FEA124B22EA0B4E72
:103380004FEA154625EA06470BFB06FC0EFB06F640
:1033900007FB0EFE1EEB064E4CEB164C0BFB07F725
:1033A0001EEB074E4CEB174B18EB0B0840F10000DF
:1033B00018EB0E0B58EB000840F100008F1A4FF08D
:1033C00000014FF000063CBFC943661B14BFB5EBBC
:1033D000040C00213CBFC943F61B4FEA174427EAFF
:1033E00004454FEA1C472CEA074C04FB076205FB27
:1033F00007F70CFB05F616EB074642EB174204FBFA
:103400000CFC16EB0C4642EB1C421BEB060658EB81
:10341000020241414EEA8E0E46EA9E0601D5BDE803
:103420000189B619524141EB0101A3F10103BDE845
:1034300001894FEA144524EA05464FEA114721EA7B
:10344000074C05FB07F406FB07F70CFB06F111EB35
:10345000074144EB174405FB0CFC11EB0C4144EB1A
:103460001C444FEA124722EA074C05FB07F206FB11
:1034700007F70CFB06F616EB074642EB174205FB77
:103480000CFC16EB0C4642EB1C456A1854F100018B
:1034900048BF7047B619524141EB0101A3F1010346
:1034A000704795F0000F37D04FEA114221EA0246EB
:1034B0004FEA144724EA074C02FB07F106FB07F723
:1034C0000CFB06F414EB074441EB174102FB0CFC28
:1034D00014EB0C4441EB1C414FEA154725EA074C1D
:1034E00002FB07F506FB07F70CFB06F616EB074693
:1034F00045EB174502FB0CFC16EB0C4645EB1C425A
:10350000121951F1000148BF7047B619524141EB01
:103510000101A3F1010370474FEA144524EA05466F
:103520004FEA114721EA074C05FB07F106FB07F7B5
:103530000CFB06F212EB074241EB174105FB0CFCBA
:1035400012EB0C4251EB1C414FF0000648BF704794
:10355000921841EB0101A3F10103704703B40198F4
:103560004100009850EAC12018BF04204A0D18BF3E
:1035700040F0010040F2FF72B2EB515F08BF40F033
:103580000200012808BF052002B0704730380A2821
:1035900001D20120704700207047000010B50029BB
:1035A0000AD00878002807D005487844FDF708FCC1
:1035B000002801D0002010BD0248784410BD000052
:1035C000420300003A0300000808A0F500114FEA8A
:1035D0003101704743004FEAD30C4FEA3C0C4340A3
:1035E0001FBF40070CF1605113F0FE4F70471CF0F5
:1035F000006F03D10CF00041002070470CF0004335
:1036000043EA507040EACC0010B500F00EF800BF5D
:10361000000000924FEA0001FFF7D6BF4FF00041D3
:10362000A1F500214FF0000070470EF1020E2EF0C0
:10363000030E5EF8044B244204D44FEA4102B2F177
:103640007F4F11D84FEA4003B3F17F4F0CD80ED112
:103650004FEAD07C0CEB4C0C0CF1020CB2F17F4F1A
:1036600008BF4CEBD17C04E04FF0080C01E04FEABE
:10367000D17C0CEB4C0324FA03F404F00704B4F1FE
:10368000040C06D20EEB840CBDE810404CF0010C8B
:103690006047DFE80CF0070802024FF00040A0F599
:1036A000800010BD0846420018BFD2F1807288BF6A
:1036B00000F0004010BDF1EE100A4FF6FF71C0F2AD
:1036C000C03120EA010040F04070E1EE100A70477E
:1036D000FDF7F2B8303132333435363738394142BC
:1036E0004344454640305800303132333435363764
:1036F0003839616263646566403078000400000810
:1037000000000000000000020001000010000000A6
:1037100002400000000000A0000000000540000082
:10372000000000C8000000000C4000000000409CA9
:1037300000000000194000000020BCBE0000000096
:1037400034400000BFC91B8E00000004B5400000DB
:10375000504BCFD06607E2CF010000006C41000063
:103760003E8251AADFEEA73401000000D9420000DA
:10377000DCB5A0E23A301F97FFFFFFFFB445000021
:10378000FD25A0C8E9A3C14FFFFFFFFFFF3F0000D9
:103790000000008000000000FF3F000000000080EB
:1037A000000000000000000000000000010203040F
:1037B0000607080900000000010203045265616465
:1037C000205057525F4D474D545F31206661696C00
:1037D00065642E0D0A0D0A005374617274207265BF
:1037E0006164696E6720414343454C2064617461A4
:1037F0002062792053504920696E74657272757029
:10380000742E2E2E0D0A005265737461727420415D
:103810004343454C2053504920696E74657272755C
:1038200070742072656164206661696C65642E0D38
:103830000A00466972737420414343454C2053503B
:103840004920696E74657272757074207265616466
:10385000206661696C65642E0D0A00466972737496
:1038600020414343454C2053504920696E74657292
:10387000727570742072656164207374617274650E
:10388000642E0D0A005772697465205057525F4DBF
:10389000474D545F3120737563636573732E0D0A52
:1038A000004158203D20252E336620672C204159A9
:1038B000203D20252E336620672C20415A203D20B4
:1038C000252E336620670D0A000000000839000825
:1038D0000000002010000000EC010008183900086A
:1038E00010000020200700000C0200081C0000004F
:1038F00043000000F8FFFFFF0C0000000E00000076
:103900000F0000002E000000010000001000000069
:083910000024F4000000000097
:040000050800018965
:00000001FF
