:020000040800F2
:10000000C00600205502000809190008011900085F
:10001000051900084D0400082D1B00080000000011
:10002000000000000000000000000000111900089E
:1000300051040008000000000D19000815190008FF
:100040006F0200086F0200086F0200086F020008CC
:100050006F0200086F020008550400086F020008D4
:100060006F0200086F0200086F0200086F020008AC
:100070006F0200086F0200086F0200086F0200089C
:100080006F0200086F0200086F0200086F0200088C
:100090006F0200086F0200086F0200086F0200087C
:1000A0006F0200086F0200086F0200086F0200086C
:1000B0006F0200086F0200086F0200086F0200085C
:1000C0006F0200086F0200086F0200086F0200084C
:1000D0006F0200086F0200086F0200086F0200083C
:1000E0006F0200086F0200086F0200086F0200082C
:1000F0006F0200086F0200086F0200086F0200081C
:100100006F0200086F0200086F0200086F0200080B
:100110006F0200082D1900086F0200086F02000826
:100120006F0200086F0200086F0200086F020008EB
:100130006F0200086F0200086F0200086F020008DB
:100140006F0200086F0200086F0200086F020008CB
:100150006F0200086F0200086F0200086F020008BB
:100160006F0200086F0200086F0200086F020008AB
:100170006F0200086F0200086F0200080000000014
:100180006F0200086F02000800F002F800F052F859
:1001900014A696E8000CB244B344DA4501D100F04D
:1001A00049F8BAE80F000FA696E83000A5EB040561
:1001B00004EB0607AAEB0704A7F101074FEA1515A0
:1001C0004FEA3414A4F10104AC4201D300F032F838
:1001D00013F0010F18BFFB1A43F0010300F001F800
:1001E000DBE71847481B0000681B0000103A24BFDB
:1001F00078C878C1FAD8520724BF30C830C144BF8C
:1002000004680C6070470000704700000023002461
:1002100000250026103A28BF78C1FBD8520728BF16
:1002200030C148BF0B6070471FB501F065FD1FBDB1
:1002300010B510BD00F0D0F81146FFF7F5FF01F042
:1002400077FC00F0EEF803B4FFF7F2FF03BC00F018
:10025000F5F800000948804709480047FEE7FEE737
:10026000FEE7FEE7FEE7FEE7FEE7FEE7FEE7FEE766
:1002700004480549054A064B704700001919000853
:1002800089010008C0000020C0060020C002002034
:10029000C002002053EA020C00F069802DE9F04B07
:1002A0004FF00006002B1FBFB3FA83F503FA05F4E5
:1002B00024FA05F65E4012BF1643B2FA82F502FA3E
:1002C00005F4C5F120051EBF22FA05FC44EA0C0422
:1002D000203556EA044C4FEA144418BF641C4FF012
:1002E00000084FF00009904271EB030C39D300294C
:1002F00019BFB1FA81F701FA07F6B0FA80F700FAF0
:1003000007F6C7F120071EBF20FA07FC46EA0C06D5
:100310002037B6FBF4FCA7EB0507103F07F01F0BD7
:10032000CBF120062CFA06F60CFA0BFB44BFB346C1
:100330000026202FA4BF5E464FF0000B5BEA060CA0
:1003400008BF4FF0010B19EB0B0948EB0608ABFB9C
:10035000027C06FB02CC0BFB03CCC01B71EB0C0137
:10036000C1E70B46024641464846BDE8F08B13B54F
:10037000084318BF4FF0FF300146AFF30080BDE8DF
:100380001C4070474FF0000200B513469446964655
:10039000203922BFA0E80C50A0E80C50B1F1200198
:1003A000BFF4F7AF090728BFA0E80C5048BF0CC046
:1003B0005DF804EB890028BF40F8042B08BF7047A4
:1003C00048BF20F8022B11F0804F18BF00F8012B16
:1003D0007047704770477047754600F02BF8AE467F
:1003E00005006946534620F00700854618B020B541
:1003F000FFF73EFFBDE820404FF000064FF000073A
:100400004FF000084FF0000BAC46ACE8C009ACE878
:10041000C009ACE8C009ACE8C00921F007018D466D
:10042000704710B50446AFF300802046BDE8104089
:10043000FFF709BF0048704710000020014918204D
:10044000ABBEFEE72600020070470000FEE700009A
:1004500070470000012000F019B9000070B5866DEA
:10046000044600F003FA94F83510022928D1054615
:100470002068216C026822F016020260426922F0B4
:100480008002426109B9A16C19B1016821F008012B
:100490000160016821F00101016000BF206800686F
:1004A000C00715D000F0E2F9401B0628F6D3202043
:1004B0006065032084F83500002184F8341070BD95
:1004C000802060650120002184F8341070BD00BFD9
:1004D000E06D3F2101FA00F0B060012084F83500A2
:1004E0000020002184F8341070BD000090F8351011
:1004F000022909D1052180F835100068016821F032
:100500000101016000207047802141650120704792
:10051000B0B5044600F0AAF9054640F20000C2F268
:1005200000000078611C18BF044400BF00F09EF971
:10053000401BA042FAD3B0BD10B5012818BF10BDB2
:1005400040F60044C4F20204A4F54060012100F02A
:1005500079F9012840F0988020464FF4805101221B
:1005600000F07EF94FF4FA70FFF7D2FF20464FF407
:100570000051012200F074F94FF4FA70FFF7C8FF40
:1005800020464FF48041012200F06AF94FF4FA70DE
:10059000FFF7BEFF20464FF40041012200F060F952
:1005A0004FF4FA70FFF7B4FF20464FF47041002279
:1005B00000F056F94FF4FA70FFF7AAFF20464FF407
:1005C0008051012200F04CF94FF4FA70FFF7A0FFC0
:1005D00020464FF40051012200F042F94FF4FA7026
:1005E000FFF796FF20464FF48041012200F038F9D2
:1005F0004FF4FA70FFF78CFF20464FF400410122C0
:1006000000F02EF94FF4FA70FFF782FF20464FF406
:100610007041002200F024F94FF4FA70FFF778FFE0
:1006200020464FF48051012200F01AF94FF4FA707D
:10063000FFF76EFF20464FF40051012200F010F941
:100640004FF4FA70FFF764FF20464FF48041012217
:1006500000F006F94FF4FA70FFF75AFF20464FF406
:100660000041012200F0FCF84FF4FA70FFF750FF50
:1006700020464FF47041002200F0F2F84FF4FA7077
:10068000BDE81040FFF744BF10BD000043F6144121
:10069000C4F201010A68024214BF08607047FFF704
:1006A0004BBF00002DE9F04F83B000F1200200F1B4
:1006B0003E4741F60045009207F1FF77C4F202057C
:1006C00008224FEAB726A84208BF072200254FF0AC
:1006D00000084FF00009072E38BF4FEAB7220192F9
:1006E0000AE000BF09F1010908F10208B9F1100F91
:1006F00005F1040500F0A2800F68012202FA09FE4C
:1007000017EA0E0AEED0D1F804C003220CF003075A
:100710007E1E02FA08F4012E6FEA040B12D88468D8
:10072000CE6804EA0B0406FA08F634438460446891
:1007300024EA0E06CCF3001404FA09F426434660BA
:1007400004E000BF032F01D103271EE0C6688C68B8
:1007500006EA0B0604FA08F42643022FC66014D1F9
:100760006FF00302009E02EA590756F807C005F031
:100770001C040F220B69A2402CEA0202A3401A4378
:10078000F251D1F804C00CF00307026807FA08F32D
:1007900002EA0B021A431CF4403F0260A2D000227E
:1007A00043F644030292C4F202031A6843F600447B
:1007B00042F480421A601A68C4F2010402F48042D2
:1007C0000292029A29F003024FF6084C2244CFF617
:1007D000FF7C52F80C3005F00C070F26BE40B343E7
:1007E000019E06FA07F73B4342F80C30A2684B68BB
:1007F00042EA0A0743F60C4CDE0258BF22EA0A0717
:10080000A760C4F2010CDCF800209E0242EA0A074D
:1008100058BF22EA0A07CCF8007062689E0342EAD9
:100820000A0758BF22EA0A0767602268DB0342EA28
:100830000A0758BF22EA0A07276053E703B0BDE85A
:10084000F08F00000069084018BF012070470000C9
:10085000426902EA0103914341EA03418161704721
:10086000002A08BF090481617047000040F2BC0003
:10087000C2F200000068704740F2000040F2BC0184
:10088000C2F20000C2F2000100780A681044086059
:100890007047000080B543F60040C4F202000168D2
:1008A00041F400710160016841F4806101600168F8
:1008B00041F480710160032000F086F8002000F010
:1008C00005F800F027F8002080BD000070B540F268
:1008D0000006C2F2000640F208013278C2F20001BE
:1008E0004FF47A730968B3FBF2F20446B1FBF2F1FC
:1008F000084600F061FB0F2C4FF0010508D838B90D
:100900004FF0FF3021460022002500F031F87460DE
:10091000284670BD82B0002043F640010190C4F229
:1009200002014A6842F480424A604A6802F4804206
:100930000192019A0090086840F0805008600868B1
:1009400000F080500090009802B07047002848BF27
:10095000704700F01F01012202FA01F11C2202EA95
:10096000D0004EF20012CEF200028150704700001B
:1009700010B54EF60C5CCEF2000CDCF80030C3F380
:10098000022E8EF00704042C28BF0424BEF10303BA
:100990004FF0FF3E0EFA04F438BF0023A143994004
:1009A0000EFA03F39A43114300F00F0200F1604383
:1009B0000901043A03F564436244002848BF02F188
:1009C0000C03197010BD00004EF60C51CEF2000160
:1009D0000A684FF6FF031A4060F30A2242F0806073
:1009E00040F0FD7008607047002804BF0120704788
:1009F0002DE9F04143F60808C4F202080446D8F88D
:100A0000F8030D4600F00700814207D988F8F85333
:100A1000D8F8F80300F00700A84277D120688107D2
:100A200017D5410705D5D8F8001041F4E051C8F8B2
:100A30000010010705D5D8F8001041F46041C8F84E
:100A40000010D8F80010A26821F0F0011143C8F896
:100A50000010C00740D1D8F8F80300F00700854225
:100A600007D288F8F853D8F8F80300F00700A84236
:100A70004CD12068410707D5D8F80010E26821F46E
:100A8000E0511143C8F80010000708D5D8F800005D
:100A9000216920F4604040EAC100C8F8000000F07D
:100AA0007DF8D8F8001041F61252C1F30311C0F6D8
:100AB0000002515C40F2080220FA01F140F2040009
:100AC000C2F200000068C2F200021160FFF7FEFEF1
:100AD0000020BDE8F08100BF6068811E022907D2B6
:100AE00058F8081C89015CBF0120BDE8F08111E0C5
:100AF000012807D158F8081C89035CBF0120BDE814
:100B0000F08107E058F8081C890703D40120BDE8EC
:100B1000F08100BFD8F8001021F003010843C8F8A5
:100B20000000FFF7A3FE064641F28837D8F8000020
:100B3000616800F00C00B0EB810F8CD0FFF796FEDF
:100B4000801BB842F2D90320BDE8F08140F20800D2
:100B500043F60801C2F20000C4F20201006809680D
:100B600041F62252C1F38221C0F60002515CC84016
:100B70007047000040F2080043F60801C2F200008E
:100B8000C4F202010068096841F62252C1F3423101
:100B9000C0F60002515CC8407047000010B543F633
:100BA0000404C4F202046168C1F3810142F200400E
:100BB000C0F2F400DFE801F002040A0210BD00BF39
:100BC00047F64000C0F27D1010BD00BF20682168CC
:100BD0002368490247F64001C0F27D1100F03F0250
:100BE000C3F388105CBF42F20041C0F2F401A1FBE4
:100BF00000010023FFF74EFB21680222C1F30141EF
:100C000002EB4101B0FBF1F010BD0000002804BF71
:100C1000012070472DE9F04182B00446007843F688
:100C20000006C007C4F202060CD0B06800F00C0049
:100C3000042840F081803068800303D56068002874
:100C400000F06881207880071BD5B06810F00C0F89
:100C500009D0B06800F00C00082840F08780706868
:100C6000400200F183803068800703D5E0680128E6
:100C700040F050813068216920F0F80040EAC1005E
:100C800030602078000713D4207840072AD4A56963
:100C9000002D00F03A81B06800F00C00082840F008
:100CA000A580012D40F00E81012002B0BDE8F08149
:100CB0006069002800F082800020C4F247200121F2
:100CC000C0F8801EFFF7D2FD054600BF706F800799
:100CD000DAD4FFF7CBFD401B0228F7D9032002B07E
:100CE000BDE8F081306C5FEAC0080AD400200190B2
:100CF000306C40F080503064306C00F080500190D7
:100D0000019847F20007C4F200073868C00547D4CD
:100D1000386840F480703860FFF7A8FD054600BFD2
:100D20003868C0053CD4FFF7A1FD401B0228F7D965
:100D3000032002B0BDE8F081B06800F00C00082884
:100D400003D1706840023FF576AF61683068B1F555
:100D5000803F07D0B1F5A02F40F09A8040F480206A
:100D60003060306840F4803030609AE0E0680028FD
:100D700040F20000C4F247205CD001210160FFF77F
:100D800075FD0546306880073FF574AFFFF76EFDCF
:100D9000401B0228F6D9032002B0BDE8F08100BF55
:100DA000A168306F012905D0052955D140F0040014
:100DB0003067306F40F00100306756E00020C4F229
:100DC00047200021C0F8801EFFF750FD054600BFF8
:100DD000706F80077FF558AFFFF748FD401B022872
:100DE000F6D9032002B0BDE8F08100BF0027C4F2AD
:100DF000472700203866FFF739FD022D05460DD143
:100E00003068800140F18A80FFF730FD401B0228E6
:100E10004FF00300F4D902B0BDE8F08130688001E2
:100E200073D5FFF723FD401B02284FF00300F5D9CF
:100E3000F1E700BF00210160FFF718FD054600BF84
:100E4000306880077FF51DAFFFF710FD401B0228BB
:100E50004FF00300F4D9DEE720F001003067306F77
:100E6000002920F0040030677AD0FFF7FFFC054628
:100E700041F28837306F800700F18480FFF7F6FC7D
:100E8000401BB842F6D9032002B0BDE8F08100BF94
:100E900020F4803030603068002920F480203060F9
:100EA0007AD0FFF7E3FC0546306880033FF5CAAE11
:100EB000FFF7DCFC401B6428F6D9032002B0BDE834
:100EC000F08100BF7068E16900F480028A4221D19C
:100ED000216A00F03F028A421CD147F6C071626A63
:100EE0000140B1EB821F15D1A16A4FF6FF73C90310
:100EF000994300F44032A1F580318A420AD1E16A77
:100F000000F07060B0EB016F04D1002002B0BDE8CA
:100F1000F08100BF012002B0BDE8F08104F11C05A2
:100F20002FCD084340EA8210D9034FF6FF72914358
:100F3000A1F5803140EA0560084370600120386601
:100F4000FFF794FC044600BF30688001DDD4FFF752
:100F50008DFC001B02284FF00300F5D95BE700BFB2
:100F6000FFF784FC054641F2883700BF306F8007E9
:100F700008D5FFF77BFC401BB8424FF00300F5D9C2
:100F800049E700BFB8F1000F3FF581AE306C20F0AB
:100F9000805030647BE600BFFFF768FC054600BF69
:100FA000306880037FF54EAEFFF760FC401B64287D
:100FB0004FF00300F4D92EE7411E0020B0EB116F73
:100FC0001CBF012070474EF21002CEF200025160A9
:100FD0004EF62351CEF20001F0230B7007219060F2
:100FE000116070477047000070470000B0B582B0D4
:100FF00001680A68CC684B6902F02F05202D04F0C7
:10100000200505D125B102B0BDE8B04000F09ABC82
:101010005FEA027C1EBF03F0010E04F4907313EB31
:101020000E0341D1036BD50618D5012B16D114F050
:10103000100313D0002201920A6801924A680192BB
:10104000019A496949064BD4818DC28DC38D002B0D
:1010500018BF914240F0068202B0B0BD13062DD5F4
:1010600014F080032AD090F84120212AF4D182681C
:10107000B2F5805F03D10269002A00F07982026A2A
:10108000531C036212784A60C28C013A1304C28472
:10109000E2D1C86820F08000C860C86840F0400015
:1010A000C86002B0B0BD00BFD30718BF14F480738E
:1010B00040F0E280530700F1E580EAE05206CBD52C
:1010C00014F04002C8D0CA6822F04002CA60202151
:1010D00080F8411002B0BDE8B04000F00FBC00BF86
:1010E000C26B11684B68858D99B2002900F0B480FD
:1010F000A94280F0B180C385D169B1F5807F00F04D
:10110000A080016851E8031F026821F4807142E861
:101110000313DBB1016851E8031F026821F48071F9
:1011200042E8031393B1016851E8031F026821F4F8
:10113000807142E803134BB1016851E8031F026854
:1011400021F4807142E80313002BDAD1016851E8E1
:10115000051F026821F0010142E80513BBB30168D5
:1011600051E8051F026821F0010142E8051373B33D
:10117000016851E8051F026821F0010142E80513EA
:101180002BB3016851E8051F026821F0010142E814
:101190000513002BDAD11AE0016851E8051F026837
:1011A00021F0400142E80513DBB1016851E8051F59
:1011B000026821F0400142E8051393B1016851E84B
:1011C000051F026821F0400142E805134BB1016898
:1011D00051E8051F026821F0400142E80513002B89
:1011E000DAD1202180F8421000210163016851E822
:1011F000031F026821F0100142E80313DBB101680C
:1012000051E8031F026821F0100142E8031393B173
:10121000016851E8031F026821F0100142E803133E
:101220004BB1016851E8031F026821F0100142E848
:101230000313002BDAD1C16B04460846FFF70EF901
:10124000204602214163818DC28D891A89B202B084
:10125000BDE8B040FFF7C6BE8D427FF4FDAED26957
:10126000B2F5807F7FF4F8AE0222426302B0BDE89F
:10127000B040FFF7B7BE00BF436C43F001034364C7
:10128000530706D5BEF1000F03D0436C43F00203B1
:101290004364930706D5BEF1000F03D0436C43F0BF
:1012A00004034364BCF1000F06D55EEA050303D0D6
:1012B000436C43F008034364436C002B3FF4CCAE13
:1012C000920605D525B1044600F03CFB2168204676
:1012D0004969426C01F0400102F00802891800F0EF
:1012E000B98000BF016851E8031F026821F49071C2
:1012F00042E80313BBB3016851E8031F026821F4FD
:10130000907142E8031373B3016851E8031F026848
:1013100021F4907142E803132BB3016851E8031FD5
:10132000026821F4907142E80313002BDAD11AE02D
:10133000016851E8051F026821F0010142E8051328
:10134000DBB1016851E8051F026821F0010142E8A4
:10135000051393B1016851E8051F026821F00101EE
:1013600042E805134BB1016851E8051F026821F0FE
:10137000010142E80513002BDAD1016B012924D1C8
:10138000016851E8031F026821F0100142E80313CD
:10139000DBB1016851E8031F026821F0100142E847
:1013A000031393B1016851E8031F026821F0100193
:1013B00042E803134BB1016851E8031F026821F0B2
:1013C000100142E80313002BDAD1202180F84210EB
:1013D0000021016301684969490640F1C380016841
:1013E00051E8051F026821F0400142E80513DBB116
:1013F000016851E8051F026821F0400142E8051329
:1014000093B1016851E8051F026821F0400142E8EC
:1014100005134BB1016851E8051F026821F0400136
:1014200042E80513002BDAD1C16B002900F09A8045
:1014300041F63912C0F60002044608460A65FFF775
:1014400055F800283FF408AEE06B016D02B0BDE82E
:10145000B04008470446FFF7C7FD0020606402B0B3
:10146000B0BD00BF891A00BF026852E8032F0368AD
:1014700022F4907243E80325BDB3026852E8032FBB
:10148000036822F4907243E8032575B3026852E8BA
:10149000032F036822F4907243E803252DB30268FA
:1014A00052E8032F036822F4907243E80325002DCD
:1014B000DAD11AE0026852E8052F036822F001022F
:1014C00043E80525DDB1026852E8052F036822F0E4
:1014D000010243E8052595B1026852E8052F03682B
:1014E00022F0010243E805254DB1026852E8052FBC
:1014F000036822F0010243E80525002DDAD12022FD
:1015000080F8422000220263026852E8032F036839
:1015100022F0100243E80325DDB1026852E8032FF0
:10152000036822F0100243E8032595B1026852E8EF
:10153000032F036822F0100243E803254DB102682F
:1015400052E8032F036822F0100243E80325002D20
:10155000DAD1022289B2426302B0BDE8B040FFF79F
:1015600041BD00BF02B0BDE8B040FFF73DBD00BFC8
:10157000026A32F8023B6FF35F234B60026283E53D
:10158000002804BF0120704710B5044690F84100C0
:1015900028B9002084F84000204600F021F82420DB
:1015A00084F841002068C16821F40051C1602046E0
:1015B00000F048FA2068016921F490410161416915
:1015C00021F02A014161C16841F40051C16000204D
:1015D0002021606484F8411084F84210606310BDDB
:1015E0002DE9F04387B045F200050068C4F200051C
:1015F0000026A8420696CDE904660396029603D01B
:1016000007B0BDE8F08300BF43F630000196C4F296
:101610000200016902AC41F48011016101694FF0DF
:10162000020801F4801101910199019601684FF0BF
:10163000030941F0040101600168082701F0040179
:10164000019101990196016841F00801016000686B
:10165000214600F00800019001984FF4805002905C
:1016600005F5DC30CDE90386CDF814900697FFF739
:1016700019F80420CDE9020805F5DE302146CDE950
:1016800004690697FFF70EF8352001210022FFF7C5
:101690006FF93520FFF75AF907B0BDE8F083000075
:1016A00090F84230202B07D100294FF0010318BFDA
:1016B000002A05D11846704702231846704700BF1C
:1016C00000230363816222218285C285436480F8FE
:1016D00042100169006819B1C16841F48071C160AC
:1016E000416941F001014161C16841F02001C160DF
:1016F0001846704710B540F60044C4F20204006872
:10170000A4F5DE31884218BF10BD20464FF4704169
:10171000FFF79EF84FF47A70FEF7FAFE20464FF47A
:101720007041FFF795F84FF47A70FEF7F1FE20460E
:101730004FF47041FFF78CF84FF47A70FEF7E8FE33
:1017400020464FF47041FFF783F84FF47A70FEF7AC
:10175000DFFE40F27001C2F20001081D0122BDE867
:101760001040FFF79DBF00002DE9F04381B0044613
:1017700090F84100202809D100294FF0010018BF3E
:10178000002A07D101B0BDE8F08300BF022001B0FC
:10179000BDE8F0830020606421201D460E4684F8D9
:1017A00041001746FFF762F8A784E784A1688146E5
:1017B000B1F5805F02D1206900285DD03746002056
:1017C000E28C2168002A5DD06A1C24D0002D4AD00A
:1017D000804600BF0868000608D4FFF747F8A0EB72
:1017E0000900A8427AD82168C868F3E717B117F84A
:1017F000010B04E038F8020B00276FF35F2048600C
:10180000E08C0138E084E08C0028E3D13AE000BFAE
:101810000A68120609D40A68120606D40A68120673
:101820005CBF0A685FEA0262F2D51FB117F8012BAC
:1018300005E000BF30F8022B00276FF35F224A60FB
:10184000E28C013AE284E28C002AE4D11AE000BF83
:1018500030F8022B00276FF35F224A60E28C013AD6
:10186000E284E28C72B10A68120635D5002FEFD0FF
:1018700017F8012BF1E700BF00273046E28C216802
:10188000002AA1D1086840061ED42DB3681C14D1CB
:10189000086840062AD40868400627D4086840062D
:1018A00024D4086840064FF00000F1D50DE000BFD9
:1018B0002068C1680068400618D4FEF7D7FFA0EB87
:1018C0000900A842F4D909E00020202184F8411041
:1018D00001B0BDE8F08300BFFEF7C8FF0320202160
:1018E00084F8411001B0BDE8F08300BF0020202142
:1018F00084F8411001B0BDE8F0830000704700009B
:10190000FEE70000FEE70000FEE700007047000071
:1019100070470000FEF7B0BF4EF68850CEF20000D0
:10192000016841F4700101607047000040F27400EA
:10193000C2F20000FFF75ABB806B0021C185FFF7A0
:1019400053BB000081B090F84210222921D1836856
:101950000246B3F5805F09D152F8281F52F8183CAF
:10196000002B63D003685B680AE000BF52F8281FB1
:1019700013B90369002BF5D003685B6803F07F039C
:101980000B70116801311160C18D01390A04C185E4
:1019900002D001B0704700BF0168CA6822F020027F
:1019A000CA60CA6822F48072CA604A6922F00102E1
:1019B0004A61202180F8421000214163026B012A14
:1019C0003CD10163016851E8031F026821F0100156
:1019D00042E80313DBB1016851E8031F026821F0FC
:1019E000100142E8031393B1016851E8031F026834
:1019F00021F0100142E803134BB1016851E8031FC5
:101A0000026821F0100142E80313002BDAD10168CB
:101A10000A68D20606D5002200920A680092496838
:101A200000910099818D01B0FFF7DCBA026852681D
:101A30006FF35F2221F8022B8162A5E701B0FFF767
:101A400059BE0000B0B50446006804F108030ECB8F
:101A50000569194325F440552A4302616269E36927
:101A60001143C268194349F20C639A431143C160A0
:101A70004169A26921F4407141F20043114340F4ED
:101A80008062C4F201039A42416103D1FFF772F808
:101A900002E000BFFFF75AF8E1694FF69C756368F2
:101AA0001922C0F6FF75B1F5004FA0FB02011FD14E
:101AB0005A00DB0FFEF7EEFB48F21F51C5F2EB11A7
:101AC000A0FB01235A0905F1805302FB03003223D6
:101AD00003EBC000A0FB01014FF4F87000EA111005
:101AE00000EB0210C1F34211084421688860B0BDC8
:101AF0009A009B0FFEF7CEFB48F21F51C5F2EB1187
:101B0000A0FB01235A0902FB0500322303EB00105E
:101B1000A0FB0101F02000EA511000EB0210C1F31C
:101B20004311084421688860B0BD0000FEE7000052
:101B300092B043F6300647F20005C4F20206C4F242
:101B40000005FEF7A7FE06AC20463021FEF71AFC82
:101B500000270597CDE90377CDE901770097306934
:101B600040F080503061306900F080500090009863
:101B70000097286840F480402860286800F480407E
:101B800000900098022006900120099010200A90F1
:101B900020460C97FFF73AF810B172B6FEE700BF87
:101BA0000F20CDE9010701A80021CDE903770597B2
:101BB000FEF71AFF10B172B6FEE700BF00270A97C2
:101BC000CDE90877CDE906770197306805F5CE3481
:101BD00040F00100306030684FF4704100F00100C7
:101BE0000190019801973068002240F008003060B1
:101BF00030684FF4704800F0080001900198019798
:101C0000306840F004003060306800F0040001905B
:101C100001982046FEF724FE4FF48810CDE907070F
:101C200005F5C83006AD012629460696FEF73AFDB1
:101C300020462946CDE90686CDE90877FEF732FD34
:101C4000062002210022FEF793FE0620FEF77EFE0C
:101C500040F27005C2F2000545F20001C4F2000135
:101C6000284640F8041F4FF4E1310C22C0E9011767
:101C7000C0E90377C0E90527C761FFF781FC18B108
:101C800072B600BFFEE700BF2C1D20462946012288
:101C9000FFF706FDD0B90E4806900DA0071D8ECFA8
:101CA000D0E90565D0E907CE406A0791089209930B
:101CB000CDE90EE006A9204627220A230A97CDE99E
:101CC0000B65CDF834C0FFF74FFD00BFFEE700BF46
:101CD00048414C5F554152545F5265636569766572
:101CE0005F495420686173206265656E2063616C92
:101CF0006C6564210D0A0000F1EE100A4FF6FF71C9
:101D0000C0F2C03120EA010040F04070E1EE100A5C
:101D100070470000000000000000010203040607F5
:101D2000080900000000010203040000501D000823
:101D30000000002010000000EC010008601D0008F9
:101D400010000020B00600000C0200080000000097
:101D500001000000100000000024F400000000005A
:040000050800018965
:00000001FF
