:020000040800F2
:10000000200700205D020008551800084D18000860
:100010005118000859060008611900080000000086
:100020000000000000000000000000005D18000853
:100030005D0600080000000059180008611800085B
:1000400077020008770200087702000877020008AC
:10005000770200087702000877020008770200089C
:10006000770200087702000877020008770200088C
:10007000770200087702000877020008770200087C
:1000800077020008770200084D0600087702000892
:10009000770200087702000877020008770200085C
:1000A000770200087702000877020008770200084C
:1000B000770200087702000877020008770200083C
:1000C000770200087702000877020008770200082C
:1000D000770200087702000877020008770200081C
:1000E000770200087702000877020008770200080C
:1000F00077020008770200087702000877020008FC
:1001000077020008770200087702000877020008EB
:1001100077020008770200087702000877020008DB
:1001200077020008770200087702000877020008CB
:1001300077020008770200087702000877020008BB
:1001400077020008770200087702000877020008AB
:10015000770200087702000877020008770200089B
:10016000770200087702000877020008770200088B
:1001700077020008770200087702000800000000FC
:10018000770200087702000800F002F800F057F844
:1001900014A696E8000CB244B344DA4501D100F04D
:1001A0004EF8BAE80F000FA696E83000A5EB04055C
:1001B00004EB0607AAEB0704A7F101074FEA1515A0
:1001C0004FEA3414A4F10104AC4201D300F037F833
:1001D00013F0010F18BFFB1A43F0010300F001F800
:1001E000DBE718471819000038190000103A24BF3F
:1001F00078C878C1FAD8520724BF30C830C144BF8C
:1002000004680C6070470000704700000023002461
:1002100000250026103A28BF78C1FBD8520728BF16
:1002200030C148BF0B607047642900F0F7800020A0
:1002300070471FB501F049FC1FBD10B510BD00F09F
:10024000CAF91146FFF7F5FF01F08CFB00F0E8F961
:1002500003B4FFF7F2FF03BC00F0F0F90948804750
:1002600009480047FEE7FEE7FEE7FEE7FEE7FEE798
:10027000FEE7FEE7FEE7FEE704480549054A064BB0
:10028000704700006518000889010008200100205F
:1002900020070020200300202003002053EA020C46
:1002A00000F069802DE9F04B4FF00006002B1FBFD6
:1002B000B3FA83F503FA05F424FA05F65E4012BF9B
:1002C0001643B2FA82F502FA05F4C5F120051EBF05
:1002D00022FA05FC44EA0C04203556EA044C4FEAA5
:1002E000144418BF641C4FF000084FF000099042FE
:1002F00071EB030C39D3002919BFB1FA81F701FA68
:1003000007F6B0FA80F700FA07F6C7F120071EBF1C
:1003100020FA07FC46EA0C062037B6FBF4FCA7EBF4
:100320000507103F07F01F0BCBF120062CFA06F64D
:100330000CFA0BFB44BFB3460026202FA4BF5E4639
:100340004FF0000B5BEA060C08BF4FF0010B19EBF6
:100350000B0948EB0608ABFB027C06FB02CC0BFB4F
:1003600003CCC01B71EB0C01C1E70B4602464146B2
:100370004846BDE8F08B13B5084318BF4FF0FF3077
:100380000146AFF30080BDE81C4070470FB41CB5B8
:10039000074B06AA7B4469460090059800F003F9D4
:1003A0000020694600F012F91CBC5DF814FB000047
:1003B000350200002DE9F0410E460446002020627F
:1003C0002046E168884730B3252805D0D4E90121CB
:1003D0009047206A401CF2E7E168204600278847E2
:1003E000050018D0A5F14100192802D820354FF496
:1003F00000673246294620462760FFF715FF40B1C7
:10040000012804D0F61D26F007060836D8E7361D69
:10041000D6E72846DAE7206ABDE8F0812DE9F04109
:100420000646002410687529314616A510D0AFF392
:100430000080002802DA404213A507E031688A07ED
:1004400001D512A502E0490704D511A5012401E058
:10045000AFF3008000210A2206F1240709E0B0FB77
:10046000F2FCB0FBF2F302FB1C003030785418466B
:10047000491C0028F3D123462A463046BDE8F04106
:1004800000F032B8000000002D0000002B0000003A
:10049000200000004FF0000200B513469446964637
:1004A000203922BFA0E80C50A0E80C50B1F1200187
:1004B000BFF4F7AF090728BFA0E80C5048BF0CC035
:1004C0005DF804EB890028BF40F8042B08BF704793
:1004D00048BF20F8022B11F0804F18BF00F8012B05
:1004E00070477047704770472DE9F0470D469946B1
:1004F0009246044600F124080168880604D5E069A4
:1005000021F01001216000E00120A84201DD471B1D
:1005100000E00027A1697A1902EB0900081AA0611E
:100520002078C00602D42046AFF30080002608E001
:10053000D4E901211AF806009047206A401C761C75
:1005400020624E45F4DB2078C0060AD52046AFF382
:10055000008006E0D4E9012130209047206A401C49
:100560002062381EA7F10107F4DC07E0D4E901217D
:1005700018F805009047206A401C2062281EA5F14B
:100580000105F3DC2046AFF300802078000602D599
:100590000220BDE8F0870120FBE7000001694A1C4A
:1005A00002610878704700B58FB0CDE901310021B4
:1005B000059105497944CDE9031011466846FFF7D6
:1005C000F9FE0FB000BD0000E5FFFFFF0A6802F86A
:1005D000010B0A607047754600F02CF8AE46050026
:1005E0006946534620F00700854618B020B5FFF74E
:1005F00043FEBDE820404FF000064FF000074FF0EB
:1006000000084FF0000BAC46ACE8C009ACE8C009EC
:10061000ACE8C009ACE8C00921F007018D4670477D
:1006200010B50446AFF300802046BDE81040FFF748
:100630000FBE00000048704710000020014918203C
:10064000ABBEFEE7260002007047000040F28800C3
:10065000C2F2000000F0DCB8FEE7000070470000C6
:100660007047000070B581B00022009290F83C20E5
:10067000012A03D1022001B070BD00BFD1F800E013
:1006800001221FFA8EFC4FEA4C0380F83C200EEB4F
:100690004E0213FA8EF31024BEF1090F88BFA3F1A6
:1006A0001E0288BF0C24036807251E59954026EAC0
:1006B00005051D518D681E5905FA02F232431A5183
:1006C0004968062906D801EB81014A1F194651F8ED
:1006D000345F0EE00C2901EB810105D8A1F1230262
:1006E000194651F8305F04E0A1F14102194651F872
:1006F0002C5F1F24944025EA04040C600CFA02F2DB
:100700000C6842F2043CC4F2010C2243ACF5417483
:10071000A3420A603ED1BEF1120F07D1DCF80010EF
:1007200041F48001CCF8001034E000BF2EF001014C
:1007300010292FD1DCF80010BEF1100F41F4000198
:10074000CCF8001026D140F20801C2F2000109687D
:100750004DF68362C4F21B32A1FB0212910C01EB35
:100760008101490000910099A1B1009901390091DE
:10077000009979B1009901390091009951B100991E
:1007800001390091009929B100990139009100992E
:100790000029EAD1002180F83C10002001B070BD92
:1007A000016842F20002C4F20102914218BF704790
:1007B00070B500F029F840F27005C2F200052C4631
:1007C00024F8180B35F8022B0CA12846FFF7DEFDA4
:1007D00040F2D006C2F200063046294614220A230F
:1007E00000F06AFF06A1304602220A2300F064FFEF
:1007F0002046BDE8704000F095B900BF25640000B8
:100800000D0A0000704700000068C06C70470000CF
:1008100070B50446006806684568B10717D515F03D
:10082000200114D0216CC90603D4216C41F400715D
:100830002164816811F0405F02D1217E002969D0D6
:100840002046FFF7ADFF20686FF0120101607107CD
:1008500014D515F0800111D0216CC90603D4216C88
:1008600041F400512164816811F4401F30D02046CA
:10087000FFF7F6FE20686FF00C010160F10706D06B
:1008800015F040011CBF01685FEAC17112D1B106C9
:100890000FD515F0806108BF70BD616C6FF0200549
:1008A00041F00201616405602046FFF7ABFF20685C
:1008B000056070BD206C40F480302064204600F05C
:1008C000F1F820686FF001010160B106E1D4F0E7B2
:1008D000816B11F4401F02D081684905C7D441687B
:1008E0004905C4D4816811F0405FC0D1217E002940
:1008F000BDD1416821F080014160206C20F480501E
:100900002064206CC005B2D4206C40F0010020644B
:10091000ADE700BFC16A11F4700F03D081684905CB
:100920003FF58EAF416821F020014160206C20F43A
:1009300080702064206CC0043FF582AF206C40F0D2
:10094000010020647CE70000002804BF01207047FC
:1009500010B5016C00293DD0016CC90645D4016C6D
:1009600041F202129143023142F204320164C4F2B4
:100970000102116821F440311160136890E81210EF
:100980002343D0F810E013604A68012422F48072F7
:100990004A604A68C0F6007442EA0E224A604A6819
:1009A00022F040724A604A6842EA0C024A608A6851
:1009B00022F400628A60C2688B681A438A60826A85
:1009C0008B68A24223F070638B608B6810D123F098
:1009D000405216E0044600F067F8204600216164AA
:1009E00084F83C10016CC906B9D5012153E000BF61
:1009F0001A438A608A6822F040528A60C26A8B6811
:100A00001A438A608A6822F002028A608A68037E3A
:100A100090F8204042EA43028A604A6884B142F476
:100A200000624A604A684EF2000322F460424A6063
:100A3000426ACFF6FF734C6803EB4232224301E077
:100A400022F400624A60CA6A40F2000C22F470028A
:100A5000CA62C3694269CFF6F07CCC6A0CEB0353DF
:100A60002343CB628B6823F400738B6090F83030A3
:100A70008C6844EA43238B608B6823F480638B602B
:100A80008B6843EA82228A6000214164026C012360
:100A900063F301020264002280F83C20BDE81040AC
:100AA000084670477047000080B586B042F20001EA
:100AB0000068C4F20101002288420592CDE90322B8
:100AC0000292019202D006B080BD00BF43F6300012
:100AD0000092C4F20200436943F4807343614369A6
:100AE00003F480730093009B0092036843F00403B7
:100AF0000360006800F0040000900098022001905C
:100B00000320CDE9020201F5684001A900F0C0F818
:100B100012200021002200F00DFA122000F0F8F956
:100B200006B080BD80B581B00021009190F83C10E6
:100B3000012903D1022001B080BD00BFD0F800E040
:100B4000012180F83C10714651F8083FDB072AD19B
:100B50000B684DF6836243F001030B6040F208031B
:100B6000C2F200031B68C4F21B32A3FB02239A0CDF
:100B700002EB42020092009AAAB100BF009A013A29
:100B80000092009A7AB1009A013A0092009A52B10A
:100B9000009A013A0092009A2AB1009A013A009212
:100BA000009A002AEAD10A68036CD2070CD143F0FC
:100BB0001001016400F1440101200A68104308603B
:100BC000002001B080BD00BF40F2017223EA0202A2
:100BD00002F580720264DEF80420520504D5026C2E
:100BE000012363F30D320264026C4FF0000C00230A
:100BF000D20444BF426C22F00603436480F83CC038
:100C00006FF02200CEF80000DEF8042042F204303B
:100C100042F0806242F02002C4F20100CEF80420CB
:100C20000268D2060CD0A0F54172964528D14FF645
:100C30000452CFF6FF72805810F0405F20D123E0BD
:100C400042F20002C4F20102964515D042F200229F
:100C5000C4F2010296450CD042F20012C4F2010225
:100C600096450DD10268D20606D0A0F5827296454F
:100C700006D10068C00603D4086810F0405F03D0B6
:100C8000002001B080BD00BF4FF0804095E700001C
:100C90002DE9F04F83B000F1200200F13E4741F60C
:100CA0000045009207F1FF77C4F2020508224FEADF
:100CB000B726A84208BF072200254FF000084FF0D2
:100CC0000009072E38BF4FEAB72201920AE000BFA1
:100CD00009F1010908F10208B9F1100F05F1040545
:100CE00000F0A2800F68012202FA09FE17EA0E0A3C
:100CF000EED0D1F804C003220CF003077E1E02FAE6
:100D000008F4012E6FEA040B12D88468CE6804EA56
:100D10000B0406FA08F634438460446824EA0E069D
:100D2000CCF3001404FA09F42643466004E000BF43
:100D3000032F01D103271EE0C6688C6806EA0B0664
:100D400004FA08F42643022FC66014D16FF00302A0
:100D5000009E02EA590756F807C005F01C040F224E
:100D60000B69A2402CEA0202A3401A43F251D1F8C7
:100D700004C00CF00307026807FA08F302EA0B024A
:100D80001A431CF4403F0260A2D0002243F6440301
:100D90000292C4F202031A6843F6004442F480420D
:100DA0001A601A68C4F2010402F480420292029AA4
:100DB00029F003024FF6084C2244CFF6FF7C52F88C
:100DC0000C3005F00C070F26BE40B343019E06FA17
:100DD00007F73B4342F80C30A2684B6842EA0A0727
:100DE00043F60C4CDE0258BF22EA0A07A760C4F2A1
:100DF000010CDCF800209E0242EA0A0758BF22EAF2
:100E00000A07CCF8007062689E0342EA0A0758BFDE
:100E100022EA0A0767602268DB0342EA0A0758BF32
:100E200022EA0A07276053E703B0BDE8F08F00000D
:100E300040F21810C2F200000068704740F2000053
:100E400040F21811C2F20000C2F2000100780A68F4
:100E5000104408607047000080B543F60040C4F2BB
:100E60000200016841F400710160016841F4806191
:100E70000160016841F480710160032000F086F890
:100E80000F2000F005F800F027F8002080BD0000DA
:100E900070B540F20006C2F2000640F20801327856
:100EA000C2F200014FF47A730968B3FBF2F2044610
:100EB000B1FBF2F1084600F061FB0F2C4FF0010589
:100EC00008D838B94FF0FF3021460022002500F045
:100ED00031F87460284670BD82B0002043F64001AE
:100EE0000190C4F202014A6842F480424A604A68B2
:100EF00002F480420192019A0090086840F080500C
:100F00000860086800F080500090009802B07047B8
:100F1000002848BF704700F01F01012202FA01F1CA
:100F20001C2202EAD0004EF20012CEF200028150E2
:100F30007047000010B54EF60C5CCEF2000CDCF8E9
:100F40000030C3F3022E8EF00704042C28BF0424C3
:100F5000BEF103034FF0FF3E0EFA04F438BF002346
:100F6000A14399400EFA03F39A43114300F00F0294
:100F700000F160430901043A03F564436244002828
:100F800048BF02F10C03197010BD00004EF60C5161
:100F9000CEF200010A684FF6FF031A4060F30A22FE
:100FA00042F0806040F0FD7008607047002804BF88
:100FB000012070472DE9F04143F60808C4F2020809
:100FC0000446D8F8F8030D4600F00700814207D91F
:100FD00088F8F853D8F8F80300F00700A84277D152
:100FE0002068810717D5410705D5D8F8001041F4CE
:100FF000E051C8F80010010705D5D8F8001041F4F9
:101000006041C8F80010D8F80010A26821F0F00183
:101010001143C8F80010C00740D1D8F8F80300F019
:101020000700854207D288F8F853D8F8F80300F093
:101030000700A8424CD12068410707D5D8F8001016
:10104000E26821F4E0511143C8F80010000708D508
:10105000D8F80000216920F4604040EAC100C8F8D7
:10106000000000F07DF8D8F8001041F6E422C1F34A
:101070000311C0F60002515C40F2080220FA01F1AF
:1010800040F20400C2F200000068C2F200021160E7
:10109000FFF7FEFE0020BDE8F08100BF6068811E02
:1010A000022907D258F8081C89015CBF0120BDE85D
:1010B000F08111E0012807D158F8081C89035CBFB2
:1010C0000120BDE8F08107E058F8081C890703D427
:1010D0000120BDE8F08100BFD8F8001021F0030125
:1010E0000843C8F80000FFF7A3FE064641F2883720
:1010F000D8F80000616800F00C00B0EB810F8CD0D4
:10110000FFF796FE801BB842F2D90320BDE8F081BC
:1011100040F2080043F60801C2F20000C4F20201E6
:101120000068096841F6F422C1F38221C0F600028A
:10113000515CC8407047000040F2080043F60801C7
:10114000C2F20000C4F202010068096841F6F4220C
:10115000C1F34231C0F60002515CC8407047000044
:1011600010B543F60404C4F202046168C1F38101BE
:1011700042F20040C0F2F400DFE801F002040A028B
:1011800010BD00BF47F64000C0F27D1010BD00BF8B
:10119000206821682368490247F64001C0F27D11AA
:1011A00000F03F02C3F388105CBF42F20041C0F27E
:1011B000F401A1FB00010023FFF770F8216802226F
:1011C000C1F3014102EB4101B0FBF1F010BD0000A1
:1011D000002804BF012070472DE9F04182B0044689
:1011E000007843F60006C007C4F202060CD0B068CF
:1011F00000F00C00042840F081803068800303D5A3
:101200006068002800F06881207880071BD5B068EE
:1012100010F00C0F09D0B06800F00C00082840F066
:1012200087807068400200F183803068800703D5B2
:10123000E068012840F050813068216920F0F80012
:1012400040EAC10030602078000713D420784007BE
:101250002AD4A569002D00F03A81B06800F00C0096
:10126000082840F0A580012D40F00E81012002B039
:10127000BDE8F0816069002800F082800020C4F29F
:1012800047200121C0F8801EFFF7D2FD054600BFB0
:10129000706F8007DAD4FFF7CBFD401B0228F7D927
:1012A000032002B0BDE8F081306C5FEAC0080AD4C8
:1012B00000200190306C40F080503064306C00F0C1
:1012C00080500190019847F20007C4F20007386887
:1012D000C00547D4386840F480703860FFF7A8FD37
:1012E000054600BF3868C0053CD4FFF7A1FD401B90
:1012F0000228F7D9032002B0BDE8F081B06800F001
:101300000C00082803D1706840023FF576AF616891
:101310003068B1F5803F07D0B1F5A02F40F09A803A
:1013200040F480203060306840F4803030609AE0D3
:10133000E068002840F20000C4F247205CD00121A0
:101340000160FFF775FD0546306880073FF574AF13
:10135000FFF76EFD401B0228F6D9032002B0BDE85E
:10136000F08100BFA168306F012905D0052955D152
:1013700040F004003067306F40F00100306756E005
:101380000020C4F247200021C0F8801EFFF750FD66
:10139000054600BF706F80077FF558AFFFF748FD27
:1013A000401B0228F6D9032002B0BDE8F08100BF3F
:1013B0000027C4F2472700203866FFF739FD022DC9
:1013C00005460DD13068800140F18A80FFF730FD7D
:1013D000401B02284FF00300F4D902B0BDE8F081B1
:1013E0003068800173D5FFF723FD401B02284FF0C2
:1013F0000300F5D9F1E700BF00210160FFF718FDF8
:10140000054600BF306880077FF51DAFFFF710FD70
:10141000401B02284FF00300F4D9DEE720F0010062
:101420003067306F002920F0040030677AD0FFF772
:10143000FFFC054641F28837306F800700F1848059
:10144000FFF7F6FC401BB842F6D9032002B0BDE816
:10145000F08100BF20F4803030603068002920F433
:10146000802030607AD0FFF7E3FC054630688003C7
:101470003FF5CAAEFFF7DCFC401B6428F6D9032019
:1014800002B0BDE8F08100BF7068E16900F480023D
:101490008A4221D1216A00F03F028A421CD147F6DC
:1014A000C071626A0140B1EB821F15D1A16A4FF68B
:1014B000FF73C903994300F44032A1F580318A4299
:1014C0000AD1E16A00F07060B0EB016F04D1002036
:1014D00002B0BDE8F08100BF012002B0BDE8F0819C
:1014E00004F11C052FCD084340EA8210D9034FF6C2
:1014F000FF729143A1F5803140EA056008437060B6
:1015000001203866FFF794FC044600BF3068800174
:10151000DDD4FFF78DFC001B02284FF00300F5D946
:101520005BE700BFFFF784FC054641F2883700BF48
:10153000306F800708D5FFF77BFC401BB8424FF0A7
:101540000300F5D949E700BFB8F1000F3FF581AEC0
:10155000306C20F0805030647BE600BFFFF768FC01
:10156000054600BF306880037FF54EAEFFF760FC94
:10157000401B64284FF00300F4D92EE7411E0020E1
:10158000B0EB116F1CBF012070474EF21002CEF27B
:10159000000251604EF62351CEF20001F0230B7091
:1015A0000721906011607047002804BF0120704738
:1015B00010B5044690F8410028B9002084F8400096
:1015C000204600F021F8242084F841002068C168FA
:1015D00021F40051C160204600F04EF920680169F5
:1015E00021F490410161416921F02A014161C16802
:1015F00041F40051C16000202021606484F8411052
:1016000084F84210606310BD2DE9F04387B045F2C5
:1016100000050068C4F200050026A8420696CDE940
:1016200004660396029603D007B0BDE8F08300BFBE
:1016300043F630000196C4F20200016902AC41F4A5
:101640008011016101694FF0020801F480110191DC
:101650000199019601684FF0030941F0040101600E
:101660000168082701F004010191019901960168C0
:1016700041F0080101600068214600F00800019077
:1016800001984FF48050029005F5DC30CDE90386D7
:10169000CDF814900697FFF7FBFA0420CDE9020875
:1016A00005F5DE302146CDE904690697FFF7F0FA2B
:1016B00007B0BDE8F08300002DE9F04381B0044697
:1016C00090F84100202809D100294FF0010018BFEF
:1016D000002A07D101B0BDE8F08300BF022001B0AD
:1016E000BDE8F0830020606421201D460E4684F88A
:1016F00041001746FFF79CFBA784E784A168814659
:10170000B1F5805F02D1206900285DD03746002006
:10171000E28C2168002A5DD06A1C24D0002D4AD0BA
:10172000804600BF0868000608D4FFF781FBA0EBE5
:101730000900A8427AD82168C868F3E717B117F8FA
:10174000010B04E038F8020B00276FF35F204860BC
:10175000E08C0138E084E08C0028E3D13AE000BF5F
:101760000A68120609D40A68120606D40A68120624
:101770005CBF0A685FEA0262F2D51FB117F8012B5D
:1017800005E000BF30F8022B00276FF35F224A60AC
:10179000E28C013AE284E28C002AE4D11AE000BF34
:1017A00030F8022B00276FF35F224A60E28C013A87
:1017B000E284E28C72B10A68120635D5002FEFD0B0
:1017C00017F8012BF1E700BF00273046E28C2168B3
:1017D000002AA1D1086840061ED42DB3681C14D17C
:1017E000086840062AD40868400627D408684006DE
:1017F00024D4086840064FF00000F1D50DE000BF8A
:101800002068C1680068400618D4FFF711FBA0EB00
:101810000900A842F4D909E00020202184F84110F1
:1018200001B0BDE8F08300BFFFF702FB03202021D9
:1018300084F8411001B0BDE8F08300BF00202021F2
:1018400084F8411001B0BDE8F0830000FEE700001D
:10185000FEE70000FEE70000704700007047000050
:10186000FFF7ECBA4EF68850CEF20000016841F462
:101870007001016070470000B0B50446006804F1D3
:1018800008030ECB0569194325F440552A4302612C
:101890006269E3691143C268194349F20C639A43D0
:1018A0001143C1604169A26921F4407141F20043D2
:1018B000114340F48062C4F201039A42416103D1B2
:1018C000FFF73AFC02E000BFFFF722FCE1694FF6A8
:1018D0009C7563681922C0F6FF75B1F5004FA0FB37
:1018E00002011FD15A00DB0FFEF7D8FC48F21F514E
:1018F000C5F2EB11A0FB01235A0905F1805302FB4D
:101900000300322303EBC000A0FB01014FF4F87089
:1019100000EA111000EB0210C1F3421108442168E3
:101920008860B0BD9A009B0FFEF7B8FC48F21F51CB
:10193000C5F2EB11A0FB01235A0902FB050032237B
:1019400003EB0010A0FB0101F02000EA511000EBB6
:101950000210C1F34311084421688860B0BD000043
:10196000FEE7000092B043F6300647F20005C4F2ED
:101970000206C4F20005FFF76FFA06AC20463021DC
:10198000FEF788FD00270597CDE90377CDE90177BC
:101990000097306940F080503061306900F080502D
:1019A000009000980097286840F4804028602868DC
:1019B00000F48040009000980220069001200990D9
:1019C00010200A9020460C97FFF702FC10B172B667
:1019D000FEE700BF0F20CDE9010701A80021CDE9F6
:1019E00003770597FFF7E2FA10B172B6FEE700BF82
:1019F00000240694306805F5304140F00400306062
:101A0000306840F2700500F00400069006980694D5
:101A10003068C2F2000540F001003060306800F02C
:101A20000100069006980694306840F00800306087
:101A30003068012600F0080006900698284640F815
:101A4000181F0121C0F600710994047680F8204027
:101A5000C0E90A14C66180F83040C0E90144C0E919
:101A600003444661FEF770FF10B172B6FEE700BF97
:101A70000B20089405F11804CDE9060606A92046B6
:101A8000FEF7F0FD10B172B6FEE700BF40F2D000E5
:101A900045F20001C2F20000C4F2000100230C274D
:101AA0004FF4E13280E80E00C0E90333C0E905736A
:101AB000C361FFF779FD18B172B600BFFEE700BF42
:101AC0002046FFF72FF800BFFEE7F1EE100A4FF6B1
:101AD000FF71C0F2C03120EA010040F04070E1EE39
:101AE000100A70470000000000000000010203041B
:101AF000060708090000000001020304201B00087B
:101B00000000002010000000EC010008301B00085D
:101B100010000020100700000C0200080000000068
:101B200001000000100000000024F400000000008C
:040000050800018965
:00000001FF
